{
  "contractName": "MyNFT",
  "abi": [
    {
      "inputs": [],
      "stateMutability": "nonpayable",
      "type": "constructor"
    },
    {
      "inputs": [
        {
          "internalType": "address",
          "name": "sender",
          "type": "address"
        },
        {
          "internalType": "uint256",
          "name": "tokenId",
          "type": "uint256"
        },
        {
          "internalType": "address",
          "name": "owner",
          "type": "address"
        }
      ],
      "name": "ERC721IncorrectOwner",
      "type": "error"
    },
    {
      "inputs": [
        {
          "internalType": "address",
          "name": "operator",
          "type": "address"
        },
        {
          "internalType": "uint256",
          "name": "tokenId",
          "type": "uint256"
        }
      ],
      "name": "ERC721InsufficientApproval",
      "type": "error"
    },
    {
      "inputs": [
        {
          "internalType": "address",
          "name": "approver",
          "type": "address"
        }
      ],
      "name": "ERC721InvalidApprover",
      "type": "error"
    },
    {
      "inputs": [
        {
          "internalType": "address",
          "name": "operator",
          "type": "address"
        }
      ],
      "name": "ERC721InvalidOperator",
      "type": "error"
    },
    {
      "inputs": [
        {
          "internalType": "address",
          "name": "owner",
          "type": "address"
        }
      ],
      "name": "ERC721InvalidOwner",
      "type": "error"
    },
    {
      "inputs": [
        {
          "internalType": "address",
          "name": "receiver",
          "type": "address"
        }
      ],
      "name": "ERC721InvalidReceiver",
      "type": "error"
    },
    {
      "inputs": [
        {
          "internalType": "address",
          "name": "sender",
          "type": "address"
        }
      ],
      "name": "ERC721InvalidSender",
      "type": "error"
    },
    {
      "inputs": [
        {
          "internalType": "uint256",
          "name": "tokenId",
          "type": "uint256"
        }
      ],
      "name": "ERC721NonexistentToken",
      "type": "error"
    },
    {
      "inputs": [
        {
          "internalType": "address",
          "name": "owner",
          "type": "address"
        }
      ],
      "name": "OwnableInvalidOwner",
      "type": "error"
    },
    {
      "inputs": [
        {
          "internalType": "address",
          "name": "account",
          "type": "address"
        }
      ],
      "name": "OwnableUnauthorizedAccount",
      "type": "error"
    },
    {
      "anonymous": false,
      "inputs": [
        {
          "indexed": true,
          "internalType": "address",
          "name": "owner",
          "type": "address"
        },
        {
          "indexed": true,
          "internalType": "address",
          "name": "approved",
          "type": "address"
        },
        {
          "indexed": true,
          "internalType": "uint256",
          "name": "tokenId",
          "type": "uint256"
        }
      ],
      "name": "Approval",
      "type": "event"
    },
    {
      "anonymous": false,
      "inputs": [
        {
          "indexed": true,
          "internalType": "address",
          "name": "owner",
          "type": "address"
        },
        {
          "indexed": true,
          "internalType": "address",
          "name": "operator",
          "type": "address"
        },
        {
          "indexed": false,
          "internalType": "bool",
          "name": "approved",
          "type": "bool"
        }
      ],
      "name": "ApprovalForAll",
      "type": "event"
    },
    {
      "anonymous": false,
      "inputs": [
        {
          "indexed": false,
          "internalType": "uint256",
          "name": "_fromTokenId",
          "type": "uint256"
        },
        {
          "indexed": false,
          "internalType": "uint256",
          "name": "_toTokenId",
          "type": "uint256"
        }
      ],
      "name": "BatchMetadataUpdate",
      "type": "event"
    },
    {
      "anonymous": false,
      "inputs": [
        {
          "indexed": false,
          "internalType": "uint256",
          "name": "_tokenId",
          "type": "uint256"
        }
      ],
      "name": "MetadataUpdate",
      "type": "event"
    },
    {
      "anonymous": false,
      "inputs": [
        {
          "indexed": true,
          "internalType": "uint256",
          "name": "tokenId",
          "type": "uint256"
        },
        {
          "indexed": false,
          "internalType": "string",
          "name": "baseURI",
          "type": "string"
        },
        {
          "indexed": false,
          "internalType": "uint256",
          "name": "totalSupply",
          "type": "uint256"
        },
        {
          "indexed": false,
          "internalType": "uint256",
          "name": "pricePerMint",
          "type": "uint256"
        },
        {
          "indexed": false,
          "internalType": "address",
          "name": "donationAddress",
          "type": "address"
        },
        {
          "indexed": false,
          "internalType": "uint256",
          "name": "donationPercentage",
          "type": "uint256"
        }
      ],
      "name": "NFTCollectionCreated",
      "type": "event"
    },
    {
      "anonymous": false,
      "inputs": [
        {
          "indexed": true,
          "internalType": "uint256",
          "name": "tokenId",
          "type": "uint256"
        },
        {
          "indexed": true,
          "internalType": "address",
          "name": "minter",
          "type": "address"
        }
      ],
      "name": "NFTMinted",
      "type": "event"
    },
    {
      "anonymous": false,
      "inputs": [
        {
          "indexed": true,
          "internalType": "address",
          "name": "previousOwner",
          "type": "address"
        },
        {
          "indexed": true,
          "internalType": "address",
          "name": "newOwner",
          "type": "address"
        }
      ],
      "name": "OwnershipTransferred",
      "type": "event"
    },
    {
      "anonymous": false,
      "inputs": [
        {
          "indexed": true,
          "internalType": "address",
          "name": "from",
          "type": "address"
        },
        {
          "indexed": true,
          "internalType": "address",
          "name": "to",
          "type": "address"
        },
        {
          "indexed": true,
          "internalType": "uint256",
          "name": "tokenId",
          "type": "uint256"
        }
      ],
      "name": "Transfer",
      "type": "event"
    },
    {
      "inputs": [
        {
          "internalType": "address",
          "name": "to",
          "type": "address"
        },
        {
          "internalType": "uint256",
          "name": "tokenId",
          "type": "uint256"
        }
      ],
      "name": "approve",
      "outputs": [],
      "stateMutability": "nonpayable",
      "type": "function"
    },
    {
      "inputs": [
        {
          "internalType": "address",
          "name": "owner",
          "type": "address"
        }
      ],
      "name": "balanceOf",
      "outputs": [
        {
          "internalType": "uint256",
          "name": "",
          "type": "uint256"
        }
      ],
      "stateMutability": "view",
      "type": "function",
      "constant": true
    },
    {
      "inputs": [
        {
          "internalType": "uint256",
          "name": "tokenId",
          "type": "uint256"
        }
      ],
      "name": "getApproved",
      "outputs": [
        {
          "internalType": "address",
          "name": "",
          "type": "address"
        }
      ],
      "stateMutability": "view",
      "type": "function",
      "constant": true
    },
    {
      "inputs": [
        {
          "internalType": "address",
          "name": "owner",
          "type": "address"
        },
        {
          "internalType": "address",
          "name": "operator",
          "type": "address"
        }
      ],
      "name": "isApprovedForAll",
      "outputs": [
        {
          "internalType": "bool",
          "name": "",
          "type": "bool"
        }
      ],
      "stateMutability": "view",
      "type": "function",
      "constant": true
    },
    {
      "inputs": [],
      "name": "name",
      "outputs": [
        {
          "internalType": "string",
          "name": "",
          "type": "string"
        }
      ],
      "stateMutability": "view",
      "type": "function",
      "constant": true
    },
    {
      "inputs": [
        {
          "internalType": "uint256",
          "name": "",
          "type": "uint256"
        }
      ],
      "name": "nftCollections",
      "outputs": [
        {
          "internalType": "string",
          "name": "baseURI",
          "type": "string"
        },
        {
          "internalType": "uint256",
          "name": "totalSupply",
          "type": "uint256"
        },
        {
          "internalType": "uint256",
          "name": "minted",
          "type": "uint256"
        },
        {
          "internalType": "uint256",
          "name": "pricePerMint",
          "type": "uint256"
        },
        {
          "internalType": "address",
          "name": "donationAddress",
          "type": "address"
        },
        {
          "internalType": "uint256",
          "name": "donationPercentage",
          "type": "uint256"
        }
      ],
      "stateMutability": "view",
      "type": "function",
      "constant": true
    },
    {
      "inputs": [],
      "name": "owner",
      "outputs": [
        {
          "internalType": "address",
          "name": "",
          "type": "address"
        }
      ],
      "stateMutability": "view",
      "type": "function",
      "constant": true
    },
    {
      "inputs": [
        {
          "internalType": "uint256",
          "name": "tokenId",
          "type": "uint256"
        }
      ],
      "name": "ownerOf",
      "outputs": [
        {
          "internalType": "address",
          "name": "",
          "type": "address"
        }
      ],
      "stateMutability": "view",
      "type": "function",
      "constant": true
    },
    {
      "inputs": [],
      "name": "renounceOwnership",
      "outputs": [],
      "stateMutability": "nonpayable",
      "type": "function"
    },
    {
      "inputs": [
        {
          "internalType": "address",
          "name": "from",
          "type": "address"
        },
        {
          "internalType": "address",
          "name": "to",
          "type": "address"
        },
        {
          "internalType": "uint256",
          "name": "tokenId",
          "type": "uint256"
        }
      ],
      "name": "safeTransferFrom",
      "outputs": [],
      "stateMutability": "nonpayable",
      "type": "function"
    },
    {
      "inputs": [
        {
          "internalType": "address",
          "name": "from",
          "type": "address"
        },
        {
          "internalType": "address",
          "name": "to",
          "type": "address"
        },
        {
          "internalType": "uint256",
          "name": "tokenId",
          "type": "uint256"
        },
        {
          "internalType": "bytes",
          "name": "data",
          "type": "bytes"
        }
      ],
      "name": "safeTransferFrom",
      "outputs": [],
      "stateMutability": "nonpayable",
      "type": "function"
    },
    {
      "inputs": [
        {
          "internalType": "address",
          "name": "operator",
          "type": "address"
        },
        {
          "internalType": "bool",
          "name": "approved",
          "type": "bool"
        }
      ],
      "name": "setApprovalForAll",
      "outputs": [],
      "stateMutability": "nonpayable",
      "type": "function"
    },
    {
      "inputs": [
        {
          "internalType": "bytes4",
          "name": "interfaceId",
          "type": "bytes4"
        }
      ],
      "name": "supportsInterface",
      "outputs": [
        {
          "internalType": "bool",
          "name": "",
          "type": "bool"
        }
      ],
      "stateMutability": "view",
      "type": "function",
      "constant": true
    },
    {
      "inputs": [],
      "name": "symbol",
      "outputs": [
        {
          "internalType": "string",
          "name": "",
          "type": "string"
        }
      ],
      "stateMutability": "view",
      "type": "function",
      "constant": true
    },
    {
      "inputs": [],
      "name": "tokenCounter",
      "outputs": [
        {
          "internalType": "uint256",
          "name": "",
          "type": "uint256"
        }
      ],
      "stateMutability": "view",
      "type": "function",
      "constant": true
    },
    {
      "inputs": [
        {
          "internalType": "uint256",
          "name": "tokenId",
          "type": "uint256"
        }
      ],
      "name": "tokenURI",
      "outputs": [
        {
          "internalType": "string",
          "name": "",
          "type": "string"
        }
      ],
      "stateMutability": "view",
      "type": "function",
      "constant": true
    },
    {
      "inputs": [
        {
          "internalType": "address",
          "name": "from",
          "type": "address"
        },
        {
          "internalType": "address",
          "name": "to",
          "type": "address"
        },
        {
          "internalType": "uint256",
          "name": "tokenId",
          "type": "uint256"
        }
      ],
      "name": "transferFrom",
      "outputs": [],
      "stateMutability": "nonpayable",
      "type": "function"
    },
    {
      "inputs": [
        {
          "internalType": "address",
          "name": "newOwner",
          "type": "address"
        }
      ],
      "name": "transferOwnership",
      "outputs": [],
      "stateMutability": "nonpayable",
      "type": "function"
    },
    {
      "inputs": [
        {
          "internalType": "string",
          "name": "baseURI",
          "type": "string"
        },
        {
          "internalType": "uint256",
          "name": "totalSupply",
          "type": "uint256"
        },
        {
          "internalType": "uint256",
          "name": "pricePerMint",
          "type": "uint256"
        },
        {
          "internalType": "address",
          "name": "donationAddress",
          "type": "address"
        },
        {
          "internalType": "uint256",
          "name": "donationPercentage",
          "type": "uint256"
        }
      ],
      "name": "createNFTCollection",
      "outputs": [
        {
          "internalType": "uint256",
          "name": "",
          "type": "uint256"
        }
      ],
      "stateMutability": "nonpayable",
      "type": "function"
    },
    {
      "inputs": [
        {
          "internalType": "uint256",
          "name": "collectionId",
          "type": "uint256"
        }
      ],
      "name": "mintNFT",
      "outputs": [],
      "stateMutability": "payable",
      "type": "function",
      "payable": true
    },
    {
      "inputs": [
        {
          "internalType": "uint256",
          "name": "collectionId",
          "type": "uint256"
        }
      ],
      "name": "getNFTCollectionDetails",
      "outputs": [
        {
          "internalType": "string",
          "name": "",
          "type": "string"
        },
        {
          "internalType": "uint256",
          "name": "",
          "type": "uint256"
        },
        {
          "internalType": "uint256",
          "name": "",
          "type": "uint256"
        },
        {
          "internalType": "uint256",
          "name": "",
          "type": "uint256"
        },
        {
          "internalType": "address",
          "name": "",
          "type": "address"
        },
        {
          "internalType": "uint256",
          "name": "",
          "type": "uint256"
        }
      ],
      "stateMutability": "view",
      "type": "function",
      "constant": true
    }
  ],
  "bytecode": "0x608060405234801562000010575f80fd5b50336040518060400160405280600981526020017f4c6f6c7a6f724d616f00000000000000000000000000000000000000000000008152506040518060400160405280600681526020017f4c4f4c4d414f0000000000000000000000000000000000000000000000000000815250815f90816200008e91906200045c565b508060019081620000a091906200045c565b5050505f73ffffffffffffffffffffffffffffffffffffffff168173ffffffffffffffffffffffffffffffffffffffff160362000116575f6040517f1e4fbdf70000000000000000000000000000000000000000000000000000000081526004016200010d919062000583565b60405180910390fd5b62000127816200013560201b60201c565b505f6008819055506200059e565b5f60075f9054906101000a900473ffffffffffffffffffffffffffffffffffffffff1690508160075f6101000a81548173ffffffffffffffffffffffffffffffffffffffff021916908373ffffffffffffffffffffffffffffffffffffffff1602179055508173ffffffffffffffffffffffffffffffffffffffff168173ffffffffffffffffffffffffffffffffffffffff167f8be0079c531659141344cd1fd0a4f28419497f9722a3daafe3b4186f6b6457e060405160405180910390a35050565b5f81519050919050565b7f4e487b71000000000000000000000000000000000000000000000000000000005f52604160045260245ffd5b7f4e487b71000000000000000000000000000000000000000000000000000000005f52602260045260245ffd5b5f60028204905060018216806200027457607f821691505b6020821081036200028a57620002896200022f565b5b50919050565b5f819050815f5260205f209050919050565b5f6020601f8301049050919050565b5f82821b905092915050565b5f60088302620002ee7fffffffffffffffffffffffffffffffffffffffffffffffffffffffffffffffff82620002b1565b620002fa8683620002b1565b95508019841693508086168417925050509392505050565b5f819050919050565b5f819050919050565b5f620003446200033e620003388462000312565b6200031b565b62000312565b9050919050565b5f819050919050565b6200035f8362000324565b620003776200036e826200034b565b848454620002bd565b825550505050565b5f90565b6200038d6200037f565b6200039a81848462000354565b505050565b5b81811015620003c157620003b55f8262000383565b600181019050620003a0565b5050565b601f8211156200041057620003da8162000290565b620003e584620002a2565b81016020851015620003f5578190505b6200040d6200040485620002a2565b8301826200039f565b50505b505050565b5f82821c905092915050565b5f620004325f198460080262000415565b1980831691505092915050565b5f6200044c838362000421565b9150826002028217905092915050565b6200046782620001f8565b67ffffffffffffffff81111562000483576200048262000202565b5b6200048f82546200025c565b6200049c828285620003c5565b5f60209050601f831160018114620004d2575f8415620004bd578287015190505b620004c985826200043f565b86555062000538565b601f198416620004e28662000290565b5f5b828110156200050b57848901518255600182019150602085019450602081019050620004e4565b868310156200052b578489015162000527601f89168262000421565b8355505b6001600288020188555050505b505050505050565b5f73ffffffffffffffffffffffffffffffffffffffff82169050919050565b5f6200056b8262000540565b9050919050565b6200057d816200055f565b82525050565b5f602082019050620005985f83018462000572565b92915050565b6130c380620005ac5f395ff3fe608060405260043610610129575f3560e01c80637785a9a2116100aa578063b88d4fde1161006e578063b88d4fde146103ea578063bfca66c914610412578063c87b56dd14610453578063d082e3811461048f578063e985e9c5146104b9578063f2fde38b146104f557610129565b80637785a9a2146103165780638da5cb5b14610352578063926427441461037c57806395d89b4114610398578063a22cb465146103c257610129565b806323b872dd116100f157806323b872dd1461023857806342842e0e146102605780636352211e1461028857806370a08231146102c4578063715018a61461030057610129565b8063010c9c941461012d57806301ffc9a71461016e57806306fdde03146101aa578063081812fc146101d4578063095ea7b314610210575b5f80fd5b348015610138575f80fd5b50610153600480360381019061014e919061222e565b61051d565b60405161016596959493929190612331565b60405180910390f35b348015610179575f80fd5b50610194600480360381019061018f91906123ec565b610682565b6040516101a19190612431565b60405180910390f35b3480156101b5575f80fd5b506101be6106e2565b6040516101cb919061244a565b60405180910390f35b3480156101df575f80fd5b506101fa60048036038101906101f5919061222e565b610771565b604051610207919061246a565b60405180910390f35b34801561021b575f80fd5b50610236600480360381019061023191906124ad565b61078c565b005b348015610243575f80fd5b5061025e600480360381019061025991906124eb565b6107a2565b005b34801561026b575f80fd5b50610286600480360381019061028191906124eb565b6108a1565b005b348015610293575f80fd5b506102ae60048036038101906102a9919061222e565b6108c0565b6040516102bb919061246a565b60405180910390f35b3480156102cf575f80fd5b506102ea60048036038101906102e5919061253b565b6108d1565b6040516102f79190612566565b60405180910390f35b34801561030b575f80fd5b50610314610987565b005b348015610321575f80fd5b5061033c600480360381019061033791906126ab565b61099a565b6040516103499190612566565b60405180910390f35b34801561035d575f80fd5b50610366610b2a565b604051610373919061246a565b60405180910390f35b6103966004803603810190610391919061222e565b610b52565b005b3480156103a3575f80fd5b506103ac610dfe565b6040516103b9919061244a565b60405180910390f35b3480156103cd575f80fd5b506103e860048036038101906103e39190612768565b610e8e565b005b3480156103f5575f80fd5b50610410600480360381019061040b9190612844565b610ea4565b005b34801561041d575f80fd5b506104386004803603810190610433919061222e565b610ec1565b60405161044a96959493929190612331565b60405180910390f35b34801561045e575f80fd5b506104796004803603810190610474919061222e565b610f9e565b604051610486919061244a565b60405180910390f35b34801561049a575f80fd5b506104a36110a9565b6040516104b09190612566565b60405180910390f35b3480156104c4575f80fd5b506104df60048036038101906104da91906128c4565b6110af565b6040516104ec9190612431565b60405180910390f35b348015610500575f80fd5b5061051b6004803603810190610516919061253b565b61113d565b005b60605f805f805f8060095f8981526020019081526020015f206040518060c00160405290815f820180546105509061292f565b80601f016020809104026020016040519081016040528092919081815260200182805461057c9061292f565b80156105c75780601f1061059e576101008083540402835291602001916105c7565b820191905f5260205f20905b8154815290600101906020018083116105aa57829003601f168201915b50505050508152602001600182015481526020016002820154815260200160038201548152602001600482015f9054906101000a900473ffffffffffffffffffffffffffffffffffffffff1673ffffffffffffffffffffffffffffffffffffffff1673ffffffffffffffffffffffffffffffffffffffff1681526020016005820154815250509050805f015181602001518260400151836060015184608001518560a001519650965096509650965096505091939550919395565b5f634906490660e01b7bffffffffffffffffffffffffffffffffffffffffffffffffffffffff1916827bffffffffffffffffffffffffffffffffffffffffffffffffffffffff191614806106db57506106da826111c1565b5b9050919050565b60605f80546106f09061292f565b80601f016020809104026020016040519081016040528092919081815260200182805461071c9061292f565b80156107675780601f1061073e57610100808354040283529160200191610767565b820191905f5260205f20905b81548152906001019060200180831161074a57829003601f168201915b5050505050905090565b5f61077b826112a2565b5061078582611328565b9050919050565b61079e8282610799611361565b611368565b5050565b5f73ffffffffffffffffffffffffffffffffffffffff168273ffffffffffffffffffffffffffffffffffffffff1603610812575f6040517f64a0ae92000000000000000000000000000000000000000000000000000000008152600401610809919061246a565b60405180910390fd5b5f6108258383610820611361565b61137a565b90508373ffffffffffffffffffffffffffffffffffffffff168173ffffffffffffffffffffffffffffffffffffffff161461089b578382826040517f64283d7b0000000000000000000000000000000000000000000000000000000081526004016108929392919061295f565b60405180910390fd5b50505050565b6108bb83838360405180602001604052805f815250610ea4565b505050565b5f6108ca826112a2565b9050919050565b5f8073ffffffffffffffffffffffffffffffffffffffff168273ffffffffffffffffffffffffffffffffffffffff1603610942575f6040517f89c62b64000000000000000000000000000000000000000000000000000000008152600401610939919061246a565b60405180910390fd5b60035f8373ffffffffffffffffffffffffffffffffffffffff1673ffffffffffffffffffffffffffffffffffffffff1681526020019081526020015f20549050919050565b61098f611585565b6109985f61160c565b565b5f6109a3611585565b60648211156109e7576040517f08c379a00000000000000000000000000000000000000000000000000000000081526004016109de90612a04565b60405180910390fd5b5f60085490506040518060c001604052808881526020018781526020015f81526020018681526020018573ffffffffffffffffffffffffffffffffffffffff1681526020018481525060095f8381526020019081526020015f205f820151815f019081610a549190612bbf565b506020820151816001015560408201518160020155606082015181600301556080820151816004015f6101000a81548173ffffffffffffffffffffffffffffffffffffffff021916908373ffffffffffffffffffffffffffffffffffffffff16021790555060a08201518160050155905050807f7e0ec2b47d578cfde504ae4514d3649273abc159a206eae86d8b378b6ff6002f8888888888604051610afe959493929190612c8e565b60405180910390a260085f815480929190610b1890612d13565b91905055508091505095945050505050565b5f60075f9054906101000a900473ffffffffffffffffffffffffffffffffffffffff16905090565b5f60095f8381526020019081526020015f2090508060010154816002015410610bb0576040517f08c379a0000000000000000000000000000000000000000000000000000000008152600401610ba790612da4565b60405180910390fd5b8060030154341015610bf7576040517f08c379a0000000000000000000000000000000000000000000000000000000008152600401610bee90612e0c565b60405180910390fd5b5f6064826005015434610c0a9190612e2a565b610c149190612e98565b90505f8134610c239190612ec8565b9050826004015f9054906101000a900473ffffffffffffffffffffffffffffffffffffffff1673ffffffffffffffffffffffffffffffffffffffff166108fc8390811502906040515f60405180830381858888f19350505050158015610c8b573d5f803e3d5ffd5b50610c94610b2a565b73ffffffffffffffffffffffffffffffffffffffff166108fc8290811502906040515f60405180830381858888f19350505050158015610cd6573d5f803e3d5ffd5b505f8360020154670de0b6b3a764000086610cf19190612e2a565b610cfb9190612efb565b9050610d0733826116cf565b610d9a81855f018054610d199061292f565b80601f0160208091040260200160405190810160405280929190818152602001828054610d459061292f565b8015610d905780601f10610d6757610100808354040283529160200191610d90565b820191905f5260205f20905b815481529060010190602001808311610d7357829003601f168201915b50505050506116ec565b836002015f815480929190610dae90612d13565b91905055503373ffffffffffffffffffffffffffffffffffffffff16817f0176f203df400d7bd5f1b1c9ef36c16709bf3b5d9fd35f000a6bae32393f66c360405160405180910390a35050505050565b606060018054610e0d9061292f565b80601f0160208091040260200160405190810160405280929190818152602001828054610e399061292f565b8015610e845780601f10610e5b57610100808354040283529160200191610e84565b820191905f5260205f20905b815481529060010190602001808311610e6757829003601f168201915b5050505050905090565b610ea0610e99611361565b8383611746565b5050565b610eaf8484846107a2565b610ebb848484846118af565b50505050565b6009602052805f5260405f205f91509050805f018054610ee09061292f565b80601f0160208091040260200160405190810160405280929190818152602001828054610f0c9061292f565b8015610f575780601f10610f2e57610100808354040283529160200191610f57565b820191905f5260205f20905b815481529060010190602001808311610f3a57829003601f168201915b505050505090806001015490806002015490806003015490806004015f9054906101000a900473ffffffffffffffffffffffffffffffffffffffff16908060050154905086565b6060610fa9826112a2565b505f60065f8481526020019081526020015f208054610fc79061292f565b80601f0160208091040260200160405190810160405280929190818152602001828054610ff39061292f565b801561103e5780601f106110155761010080835404028352916020019161103e565b820191905f5260205f20905b81548152906001019060200180831161102157829003601f168201915b505050505090505f61104e611a61565b90505f8151036110625781925050506110a4565b5f8251111561109657808260405160200161107e929190612f68565b604051602081830303815290604052925050506110a4565b61109f84611a77565b925050505b919050565b60085481565b5f60055f8473ffffffffffffffffffffffffffffffffffffffff1673ffffffffffffffffffffffffffffffffffffffff1681526020019081526020015f205f8373ffffffffffffffffffffffffffffffffffffffff1673ffffffffffffffffffffffffffffffffffffffff1681526020019081526020015f205f9054906101000a900460ff16905092915050565b611145611585565b5f73ffffffffffffffffffffffffffffffffffffffff168173ffffffffffffffffffffffffffffffffffffffff16036111b5575f6040517f1e4fbdf70000000000000000000000000000000000000000000000000000000081526004016111ac919061246a565b60405180910390fd5b6111be8161160c565b50565b5f7f80ac58cd000000000000000000000000000000000000000000000000000000007bffffffffffffffffffffffffffffffffffffffffffffffffffffffff1916827bffffffffffffffffffffffffffffffffffffffffffffffffffffffff1916148061128b57507f5b5e139f000000000000000000000000000000000000000000000000000000007bffffffffffffffffffffffffffffffffffffffffffffffffffffffff1916827bffffffffffffffffffffffffffffffffffffffffffffffffffffffff1916145b8061129b575061129a82611add565b5b9050919050565b5f806112ad83611b46565b90505f73ffffffffffffffffffffffffffffffffffffffff168173ffffffffffffffffffffffffffffffffffffffff160361131f57826040517f7e2732890000000000000000000000000000000000000000000000000000000081526004016113169190612566565b60405180910390fd5b80915050919050565b5f60045f8381526020019081526020015f205f9054906101000a900473ffffffffffffffffffffffffffffffffffffffff169050919050565b5f33905090565b6113758383836001611b7f565b505050565b5f8061138584611b46565b90505f73ffffffffffffffffffffffffffffffffffffffff168373ffffffffffffffffffffffffffffffffffffffff16146113c6576113c5818486611d3e565b5b5f73ffffffffffffffffffffffffffffffffffffffff168173ffffffffffffffffffffffffffffffffffffffff1614611451576114055f855f80611b7f565b600160035f8373ffffffffffffffffffffffffffffffffffffffff1673ffffffffffffffffffffffffffffffffffffffff1681526020019081526020015f205f82825403925050819055505b5f73ffffffffffffffffffffffffffffffffffffffff168573ffffffffffffffffffffffffffffffffffffffff16146114d057600160035f8773ffffffffffffffffffffffffffffffffffffffff1673ffffffffffffffffffffffffffffffffffffffff1681526020019081526020015f205f82825401925050819055505b8460025f8681526020019081526020015f205f6101000a81548173ffffffffffffffffffffffffffffffffffffffff021916908373ffffffffffffffffffffffffffffffffffffffff160217905550838573ffffffffffffffffffffffffffffffffffffffff168273ffffffffffffffffffffffffffffffffffffffff167fddf252ad1be2c89b69c2b068fc378daa952ba7f163c4a11628f55a4df523b3ef60405160405180910390a4809150509392505050565b61158d611361565b73ffffffffffffffffffffffffffffffffffffffff166115ab610b2a565b73ffffffffffffffffffffffffffffffffffffffff161461160a576115ce611361565b6040517f118cdaa7000000000000000000000000000000000000000000000000000000008152600401611601919061246a565b60405180910390fd5b565b5f60075f9054906101000a900473ffffffffffffffffffffffffffffffffffffffff1690508160075f6101000a81548173ffffffffffffffffffffffffffffffffffffffff021916908373ffffffffffffffffffffffffffffffffffffffff1602179055508173ffffffffffffffffffffffffffffffffffffffff168173ffffffffffffffffffffffffffffffffffffffff167f8be0079c531659141344cd1fd0a4f28419497f9722a3daafe3b4186f6b6457e060405160405180910390a35050565b6116e8828260405180602001604052805f815250611e01565b5050565b8060065f8481526020019081526020015f20908161170a9190612bbf565b507ff8e1a15aba9398e019f0b49df1a4fde98ee17ae345cb5f6b5e2c27f5033e8ce78260405161173a9190612566565b60405180910390a15050565b5f73ffffffffffffffffffffffffffffffffffffffff168273ffffffffffffffffffffffffffffffffffffffff16036117b657816040517f5b08ba180000000000000000000000000000000000000000000000000000000081526004016117ad919061246a565b60405180910390fd5b8060055f8573ffffffffffffffffffffffffffffffffffffffff1673ffffffffffffffffffffffffffffffffffffffff1681526020019081526020015f205f8473ffffffffffffffffffffffffffffffffffffffff1673ffffffffffffffffffffffffffffffffffffffff1681526020019081526020015f205f6101000a81548160ff0219169083151502179055508173ffffffffffffffffffffffffffffffffffffffff168373ffffffffffffffffffffffffffffffffffffffff167f17307eab39ab6107e8899845ad3d59bd9653f200f220920489ca2b5937696c31836040516118a29190612431565b60405180910390a3505050565b5f8373ffffffffffffffffffffffffffffffffffffffff163b1115611a5b578273ffffffffffffffffffffffffffffffffffffffff1663150b7a026118f2611361565b8685856040518563ffffffff1660e01b81526004016119149493929190612fdd565b6020604051808303815f875af192505050801561194f57506040513d601f19601f8201168201806040525081019061194c919061303b565b60015b6119d0573d805f811461197d576040519150601f19603f3d011682016040523d82523d5f602084013e611982565b606091505b505f8151036119c857836040517f64a0ae920000000000000000000000000000000000000000000000000000000081526004016119bf919061246a565b60405180910390fd5b805181602001fd5b63150b7a0260e01b7bffffffffffffffffffffffffffffffffffffffffffffffffffffffff1916817bffffffffffffffffffffffffffffffffffffffffffffffffffffffff191614611a5957836040517f64a0ae92000000000000000000000000000000000000000000000000000000008152600401611a50919061246a565b60405180910390fd5b505b50505050565b606060405180602001604052805f815250905090565b6060611a82826112a2565b505f611a8c611a61565b90505f815111611aaa5760405180602001604052805f815250611ad5565b80611ab484611e1c565b604051602001611ac5929190612f68565b6040516020818303038152906040525b915050919050565b5f7f01ffc9a7000000000000000000000000000000000000000000000000000000007bffffffffffffffffffffffffffffffffffffffffffffffffffffffff1916827bffffffffffffffffffffffffffffffffffffffffffffffffffffffff1916149050919050565b5f60025f8381526020019081526020015f205f9054906101000a900473ffffffffffffffffffffffffffffffffffffffff169050919050565b8080611bb757505f73ffffffffffffffffffffffffffffffffffffffff168273ffffffffffffffffffffffffffffffffffffffff1614155b15611ce9575f611bc6846112a2565b90505f73ffffffffffffffffffffffffffffffffffffffff168373ffffffffffffffffffffffffffffffffffffffff1614158015611c3057508273ffffffffffffffffffffffffffffffffffffffff168173ffffffffffffffffffffffffffffffffffffffff1614155b8015611c435750611c4181846110af565b155b15611c8557826040517fa9fbf51f000000000000000000000000000000000000000000000000000000008152600401611c7c919061246a565b60405180910390fd5b8115611ce757838573ffffffffffffffffffffffffffffffffffffffff168273ffffffffffffffffffffffffffffffffffffffff167f8c5be1e5ebec7d5bd14f71427d1e84f3dd0314c0f7b2291e5b200ac8c7c3b92560405160405180910390a45b505b8360045f8581526020019081526020015f205f6101000a81548173ffffffffffffffffffffffffffffffffffffffff021916908373ffffffffffffffffffffffffffffffffffffffff16021790555050505050565b611d49838383611ee6565b611dfc575f73ffffffffffffffffffffffffffffffffffffffff168373ffffffffffffffffffffffffffffffffffffffff1603611dbd57806040517f7e273289000000000000000000000000000000000000000000000000000000008152600401611db49190612566565b60405180910390fd5b81816040517f177e802f000000000000000000000000000000000000000000000000000000008152600401611df3929190613066565b60405180910390fd5b505050565b611e0b8383611fa6565b611e175f8484846118af565b505050565b60605f6001611e2a84612099565b0190505f8167ffffffffffffffff811115611e4857611e47612587565b5b6040519080825280601f01601f191660200182016040528015611e7a5781602001600182028036833780820191505090505b5090505f82602001820190505b600115611edb578080600190039150507f3031323334353637383961626364656600000000000000000000000000000000600a86061a8153600a8581611ed057611ecf612e6b565b5b0494505f8503611e87575b819350505050919050565b5f8073ffffffffffffffffffffffffffffffffffffffff168373ffffffffffffffffffffffffffffffffffffffff1614158015611f9d57508273ffffffffffffffffffffffffffffffffffffffff168473ffffffffffffffffffffffffffffffffffffffff161480611f5e5750611f5d84846110af565b5b80611f9c57508273ffffffffffffffffffffffffffffffffffffffff16611f8483611328565b73ffffffffffffffffffffffffffffffffffffffff16145b5b90509392505050565b5f73ffffffffffffffffffffffffffffffffffffffff168273ffffffffffffffffffffffffffffffffffffffff1603612016575f6040517f64a0ae9200000000000000000000000000000000000000000000000000000000815260040161200d919061246a565b60405180910390fd5b5f61202283835f61137a565b90505f73ffffffffffffffffffffffffffffffffffffffff168173ffffffffffffffffffffffffffffffffffffffff1614612094575f6040517f73c6ac6e00000000000000000000000000000000000000000000000000000000815260040161208b919061246a565b60405180910390fd5b505050565b5f805f90507a184f03e93ff9f4daa797ed6e38ed64bf6a1f01000000000000000083106120f5577a184f03e93ff9f4daa797ed6e38ed64bf6a1f01000000000000000083816120eb576120ea612e6b565b5b0492506040810190505b6d04ee2d6d415b85acef81000000008310612132576d04ee2d6d415b85acef8100000000838161212857612127612e6b565b5b0492506020810190505b662386f26fc10000831061216157662386f26fc10000838161215757612156612e6b565b5b0492506010810190505b6305f5e100831061218a576305f5e10083816121805761217f612e6b565b5b0492506008810190505b61271083106121af5761271083816121a5576121a4612e6b565b5b0492506004810190505b606483106121d257606483816121c8576121c7612e6b565b5b0492506002810190505b600a83106121e1576001810190505b80915050919050565b5f604051905090565b5f80fd5b5f80fd5b5f819050919050565b61220d816121fb565b8114612217575f80fd5b50565b5f8135905061222881612204565b92915050565b5f60208284031215612243576122426121f3565b5b5f6122508482850161221a565b91505092915050565b5f81519050919050565b5f82825260208201905092915050565b5f5b83811015612290578082015181840152602081019050612275565b5f8484015250505050565b5f601f19601f8301169050919050565b5f6122b582612259565b6122bf8185612263565b93506122cf818560208601612273565b6122d88161229b565b840191505092915050565b6122ec816121fb565b82525050565b5f73ffffffffffffffffffffffffffffffffffffffff82169050919050565b5f61231b826122f2565b9050919050565b61232b81612311565b82525050565b5f60c0820190508181035f83015261234981896122ab565b905061235860208301886122e3565b61236560408301876122e3565b61237260608301866122e3565b61237f6080830185612322565b61238c60a08301846122e3565b979650505050505050565b5f7fffffffff0000000000000000000000000000000000000000000000000000000082169050919050565b6123cb81612397565b81146123d5575f80fd5b50565b5f813590506123e6816123c2565b92915050565b5f60208284031215612401576124006121f3565b5b5f61240e848285016123d8565b91505092915050565b5f8115159050919050565b61242b81612417565b82525050565b5f6020820190506124445f830184612422565b92915050565b5f6020820190508181035f83015261246281846122ab565b905092915050565b5f60208201905061247d5f830184612322565b92915050565b61248c81612311565b8114612496575f80fd5b50565b5f813590506124a781612483565b92915050565b5f80604083850312156124c3576124c26121f3565b5b5f6124d085828601612499565b92505060206124e18582860161221a565b9150509250929050565b5f805f60608486031215612502576125016121f3565b5b5f61250f86828701612499565b935050602061252086828701612499565b92505060406125318682870161221a565b9150509250925092565b5f602082840312156125505761254f6121f3565b5b5f61255d84828501612499565b91505092915050565b5f6020820190506125795f8301846122e3565b92915050565b5f80fd5b5f80fd5b7f4e487b71000000000000000000000000000000000000000000000000000000005f52604160045260245ffd5b6125bd8261229b565b810181811067ffffffffffffffff821117156125dc576125db612587565b5b80604052505050565b5f6125ee6121ea565b90506125fa82826125b4565b919050565b5f67ffffffffffffffff82111561261957612618612587565b5b6126228261229b565b9050602081019050919050565b828183375f83830152505050565b5f61264f61264a846125ff565b6125e5565b90508281526020810184848401111561266b5761266a612583565b5b61267684828561262f565b509392505050565b5f82601f8301126126925761269161257f565b5b81356126a284826020860161263d565b91505092915050565b5f805f805f60a086880312156126c4576126c36121f3565b5b5f86013567ffffffffffffffff8111156126e1576126e06121f7565b5b6126ed8882890161267e565b95505060206126fe8882890161221a565b945050604061270f8882890161221a565b935050606061272088828901612499565b92505060806127318882890161221a565b9150509295509295909350565b61274781612417565b8114612751575f80fd5b50565b5f813590506127628161273e565b92915050565b5f806040838503121561277e5761277d6121f3565b5b5f61278b85828601612499565b925050602061279c85828601612754565b9150509250929050565b5f67ffffffffffffffff8211156127c0576127bf612587565b5b6127c98261229b565b9050602081019050919050565b5f6127e86127e3846127a6565b6125e5565b90508281526020810184848401111561280457612803612583565b5b61280f84828561262f565b509392505050565b5f82601f83011261282b5761282a61257f565b5b813561283b8482602086016127d6565b91505092915050565b5f805f806080858703121561285c5761285b6121f3565b5b5f61286987828801612499565b945050602061287a87828801612499565b935050604061288b8782880161221a565b925050606085013567ffffffffffffffff8111156128ac576128ab6121f7565b5b6128b887828801612817565b91505092959194509250565b5f80604083850312156128da576128d96121f3565b5b5f6128e785828601612499565b92505060206128f885828601612499565b9150509250929050565b7f4e487b71000000000000000000000000000000000000000000000000000000005f52602260045260245ffd5b5f600282049050600182168061294657607f821691505b60208210810361295957612958612902565b5b50919050565b5f6060820190506129725f830186612322565b61297f60208301856122e3565b61298c6040830184612322565b949350505050565b7f446f6e6174696f6e2070657263656e746167652063616e6e6f742065786365655f8201527f6420313030000000000000000000000000000000000000000000000000000000602082015250565b5f6129ee602583612263565b91506129f982612994565b604082019050919050565b5f6020820190508181035f830152612a1b816129e2565b9050919050565b5f819050815f5260205f209050919050565b5f6020601f8301049050919050565b5f82821b905092915050565b5f60088302612a7e7fffffffffffffffffffffffffffffffffffffffffffffffffffffffffffffffff82612a43565b612a888683612a43565b95508019841693508086168417925050509392505050565b5f819050919050565b5f612ac3612abe612ab9846121fb565b612aa0565b6121fb565b9050919050565b5f819050919050565b612adc83612aa9565b612af0612ae882612aca565b848454612a4f565b825550505050565b5f90565b612b04612af8565b612b0f818484612ad3565b505050565b5b81811015612b3257612b275f82612afc565b600181019050612b15565b5050565b601f821115612b7757612b4881612a22565b612b5184612a34565b81016020851015612b60578190505b612b74612b6c85612a34565b830182612b14565b50505b505050565b5f82821c905092915050565b5f612b975f1984600802612b7c565b1980831691505092915050565b5f612baf8383612b88565b9150826002028217905092915050565b612bc882612259565b67ffffffffffffffff811115612be157612be0612587565b5b612beb825461292f565b612bf6828285612b36565b5f60209050601f831160018114612c27575f8415612c15578287015190505b612c1f8582612ba4565b865550612c86565b601f198416612c3586612a22565b5f5b82811015612c5c57848901518255600182019150602085019450602081019050612c37565b86831015612c795784890151612c75601f891682612b88565b8355505b6001600288020188555050505b505050505050565b5f60a0820190508181035f830152612ca681886122ab565b9050612cb560208301876122e3565b612cc260408301866122e3565b612ccf6060830185612322565b612cdc60808301846122e3565b9695505050505050565b7f4e487b71000000000000000000000000000000000000000000000000000000005f52601160045260245ffd5b5f612d1d826121fb565b91507fffffffffffffffffffffffffffffffffffffffffffffffffffffffffffffffff8203612d4f57612d4e612ce6565b5b600182019050919050565b7f416c6c204e465473206d696e74656400000000000000000000000000000000005f82015250565b5f612d8e600f83612263565b9150612d9982612d5a565b602082019050919050565b5f6020820190508181035f830152612dbb81612d82565b9050919050565b7f496e73756666696369656e74207061796d656e740000000000000000000000005f82015250565b5f612df6601483612263565b9150612e0182612dc2565b602082019050919050565b5f6020820190508181035f830152612e2381612dea565b9050919050565b5f612e34826121fb565b9150612e3f836121fb565b9250828202612e4d816121fb565b91508282048414831517612e6457612e63612ce6565b5b5092915050565b7f4e487b71000000000000000000000000000000000000000000000000000000005f52601260045260245ffd5b5f612ea2826121fb565b9150612ead836121fb565b925082612ebd57612ebc612e6b565b5b828204905092915050565b5f612ed2826121fb565b9150612edd836121fb565b9250828203905081811115612ef557612ef4612ce6565b5b92915050565b5f612f05826121fb565b9150612f10836121fb565b9250828201905080821115612f2857612f27612ce6565b5b92915050565b5f81905092915050565b5f612f4282612259565b612f4c8185612f2e565b9350612f5c818560208601612273565b80840191505092915050565b5f612f738285612f38565b9150612f7f8284612f38565b91508190509392505050565b5f81519050919050565b5f82825260208201905092915050565b5f612faf82612f8b565b612fb98185612f95565b9350612fc9818560208601612273565b612fd28161229b565b840191505092915050565b5f608082019050612ff05f830187612322565b612ffd6020830186612322565b61300a60408301856122e3565b818103606083015261301c8184612fa5565b905095945050505050565b5f81519050613035816123c2565b92915050565b5f602082840312156130505761304f6121f3565b5b5f61305d84828501613027565b91505092915050565b5f6040820190506130795f830185612322565b61308660208301846122e3565b939250505056fea2646970667358221220007001162ddd5bc0cd5f03e3699f178fcdadd8464896b248c258548e586e90cb64736f6c63430008140033",
  "immutableReferences": {},
  "source": "// SPDX-License-Identifier: MIT\r\npragma solidity ^0.8.0;\r\n\r\nimport \"@openzeppelin/contracts/token/ERC721/extensions/ERC721URIStorage.sol\";\r\nimport \"@openzeppelin/contracts/access/Ownable.sol\";\r\n\r\ncontract MyNFT is ERC721URIStorage, Ownable {\r\n    uint256 public tokenCounter;\r\n\r\n    struct NFTCollection {\r\n        string baseURI;\r\n        uint256 totalSupply;\r\n        uint256 minted;\r\n        uint256 pricePerMint;\r\n        address donationAddress;\r\n        uint256 donationPercentage; // e.g., 5 for 5%\r\n    }\r\n\r\n    mapping(uint256 => NFTCollection) public nftCollections;\r\n\r\n    event NFTCollectionCreated(uint256 indexed tokenId, string baseURI, uint256 totalSupply, uint256 pricePerMint, address donationAddress, uint256 donationPercentage);\r\n    event NFTMinted(uint256 indexed tokenId, address indexed minter);\r\n\r\n    constructor() ERC721(\"LolzorMao\", \"LOLMAO\") Ownable(msg.sender) {\r\n        tokenCounter = 0;\r\n    }\r\n\r\n    function createNFTCollection(string memory baseURI, uint256 totalSupply, uint256 pricePerMint, address donationAddress, uint256 donationPercentage) public onlyOwner returns (uint256) {\r\n        require(donationPercentage <= 100, \"Donation percentage cannot exceed 100\");\r\n        uint256 newTokenId = tokenCounter;\r\n        nftCollections[newTokenId] = NFTCollection(baseURI, totalSupply, 0, pricePerMint, donationAddress, donationPercentage);\r\n        emit NFTCollectionCreated(newTokenId, baseURI, totalSupply, pricePerMint, donationAddress, donationPercentage);\r\n        tokenCounter++;\r\n        return newTokenId;\r\n    }\r\n\r\n    function mintNFT(uint256 collectionId) public payable {\r\n        NFTCollection storage nftCollection = nftCollections[collectionId];\r\n        require(nftCollection.minted < nftCollection.totalSupply, \"All NFTs minted\");\r\n        require(msg.value >= nftCollection.pricePerMint, \"Insufficient payment\");\r\n\r\n        uint256 donationAmount = (msg.value * nftCollection.donationPercentage) / 100;\r\n        uint256 remainingAmount = msg.value - donationAmount;\r\n\r\n        payable(nftCollection.donationAddress).transfer(donationAmount);\r\n        payable(owner()).transfer(remainingAmount);\r\n\r\n        uint256 newTokenId = collectionId * 1e18 + nftCollection.minted;\r\n        _safeMint(msg.sender, newTokenId);\r\n        _setTokenURI(newTokenId, nftCollection.baseURI);\r\n        nftCollection.minted++;\r\n        emit NFTMinted(newTokenId, msg.sender);\r\n    }\r\n\r\n    function getNFTCollectionDetails(uint256 collectionId) public view returns (string memory, uint256, uint256, uint256, address, uint256) {\r\n        NFTCollection memory nftCollection = nftCollections[collectionId];\r\n        return (nftCollection.baseURI, nftCollection.totalSupply, nftCollection.minted, nftCollection.pricePerMint, nftCollection.donationAddress, nftCollection.donationPercentage);\r\n    }\r\n}\r\n",
  "sourcePath": "C:\\GitHub\\en3-be\\contracts\\MyNFT.sol",
  "compiler": {
    "name": "solc",
    "version": "0.8.20+commit.a1b79de6.Emscripten.clang"
  },
  "schemaVersion": "3.4.16",
  "updatedAt": "2024-06-01T09:53:08.915Z",
  "networkType": "ethereum",
  "devdoc": {
    "errors": {
      "ERC721IncorrectOwner(address,uint256,address)": [
        {
          "details": "Indicates an error related to the ownership over a particular token. Used in transfers.",
          "params": {
            "owner": "Address of the current owner of a token.",
            "sender": "Address whose tokens are being transferred.",
            "tokenId": "Identifier number of a token."
          }
        }
      ],
      "ERC721InsufficientApproval(address,uint256)": [
        {
          "details": "Indicates a failure with the `operator`s approval. Used in transfers.",
          "params": {
            "operator": "Address that may be allowed to operate on tokens without being their owner.",
            "tokenId": "Identifier number of a token."
          }
        }
      ],
      "ERC721InvalidApprover(address)": [
        {
          "details": "Indicates a failure with the `approver` of a token to be approved. Used in approvals.",
          "params": {
            "approver": "Address initiating an approval operation."
          }
        }
      ],
      "ERC721InvalidOperator(address)": [
        {
          "details": "Indicates a failure with the `operator` to be approved. Used in approvals.",
          "params": {
            "operator": "Address that may be allowed to operate on tokens without being their owner."
          }
        }
      ],
      "ERC721InvalidOwner(address)": [
        {
          "details": "Indicates that an address can't be an owner. For example, `address(0)` is a forbidden owner in EIP-20. Used in balance queries.",
          "params": {
            "owner": "Address of the current owner of a token."
          }
        }
      ],
      "ERC721InvalidReceiver(address)": [
        {
          "details": "Indicates a failure with the token `receiver`. Used in transfers.",
          "params": {
            "receiver": "Address to which tokens are being transferred."
          }
        }
      ],
      "ERC721InvalidSender(address)": [
        {
          "details": "Indicates a failure with the token `sender`. Used in transfers.",
          "params": {
            "sender": "Address whose tokens are being transferred."
          }
        }
      ],
      "ERC721NonexistentToken(uint256)": [
        {
          "details": "Indicates a `tokenId` whose `owner` is the zero address.",
          "params": {
            "tokenId": "Identifier number of a token."
          }
        }
      ],
      "OwnableInvalidOwner(address)": [
        {
          "details": "The owner is not a valid owner account. (eg. `address(0)`)"
        }
      ],
      "OwnableUnauthorizedAccount(address)": [
        {
          "details": "The caller account is not authorized to perform an operation."
        }
      ]
    },
    "events": {
      "Approval(address,address,uint256)": {
        "details": "Emitted when `owner` enables `approved` to manage the `tokenId` token."
      },
      "ApprovalForAll(address,address,bool)": {
        "details": "Emitted when `owner` enables or disables (`approved`) `operator` to manage all of its assets."
      },
      "BatchMetadataUpdate(uint256,uint256)": {
        "details": "This event emits when the metadata of a range of tokens is changed. So that the third-party platforms such as NFT market could timely update the images and related attributes of the NFTs."
      },
      "MetadataUpdate(uint256)": {
        "details": "This event emits when the metadata of a token is changed. So that the third-party platforms such as NFT market could timely update the images and related attributes of the NFT."
      },
      "Transfer(address,address,uint256)": {
        "details": "Emitted when `tokenId` token is transferred from `from` to `to`."
      }
    },
    "kind": "dev",
    "methods": {
      "approve(address,uint256)": {
        "details": "See {IERC721-approve}."
      },
      "balanceOf(address)": {
        "details": "See {IERC721-balanceOf}."
      },
      "getApproved(uint256)": {
        "details": "See {IERC721-getApproved}."
      },
      "isApprovedForAll(address,address)": {
        "details": "See {IERC721-isApprovedForAll}."
      },
      "name()": {
        "details": "See {IERC721Metadata-name}."
      },
      "owner()": {
        "details": "Returns the address of the current owner."
      },
      "ownerOf(uint256)": {
        "details": "See {IERC721-ownerOf}."
      },
      "renounceOwnership()": {
        "details": "Leaves the contract without owner. It will not be possible to call `onlyOwner` functions. Can only be called by the current owner. NOTE: Renouncing ownership will leave the contract without an owner, thereby disabling any functionality that is only available to the owner."
      },
      "safeTransferFrom(address,address,uint256)": {
        "details": "See {IERC721-safeTransferFrom}."
      },
      "safeTransferFrom(address,address,uint256,bytes)": {
        "details": "See {IERC721-safeTransferFrom}."
      },
      "setApprovalForAll(address,bool)": {
        "details": "See {IERC721-setApprovalForAll}."
      },
      "supportsInterface(bytes4)": {
        "details": "See {IERC165-supportsInterface}"
      },
      "symbol()": {
        "details": "See {IERC721Metadata-symbol}."
      },
      "tokenURI(uint256)": {
        "details": "See {IERC721Metadata-tokenURI}."
      },
      "transferFrom(address,address,uint256)": {
        "details": "See {IERC721-transferFrom}."
      },
      "transferOwnership(address)": {
        "details": "Transfers ownership of the contract to a new account (`newOwner`). Can only be called by the current owner."
      }
    },
    "version": 1
  },
  "userdoc": {
    "kind": "user",
    "methods": {},
    "version": 1
  }
}