{
  "contractName": "MyNFT",
  "abi": [
    {
      "inputs": [],
      "stateMutability": "nonpayable",
      "type": "constructor"
    },
    {
      "inputs": [
        {
          "internalType": "address",
          "name": "sender",
          "type": "address"
        },
        {
          "internalType": "uint256",
          "name": "tokenId",
          "type": "uint256"
        },
        {
          "internalType": "address",
          "name": "owner",
          "type": "address"
        }
      ],
      "name": "ERC721IncorrectOwner",
      "type": "error"
    },
    {
      "inputs": [
        {
          "internalType": "address",
          "name": "operator",
          "type": "address"
        },
        {
          "internalType": "uint256",
          "name": "tokenId",
          "type": "uint256"
        }
      ],
      "name": "ERC721InsufficientApproval",
      "type": "error"
    },
    {
      "inputs": [
        {
          "internalType": "address",
          "name": "approver",
          "type": "address"
        }
      ],
      "name": "ERC721InvalidApprover",
      "type": "error"
    },
    {
      "inputs": [
        {
          "internalType": "address",
          "name": "operator",
          "type": "address"
        }
      ],
      "name": "ERC721InvalidOperator",
      "type": "error"
    },
    {
      "inputs": [
        {
          "internalType": "address",
          "name": "owner",
          "type": "address"
        }
      ],
      "name": "ERC721InvalidOwner",
      "type": "error"
    },
    {
      "inputs": [
        {
          "internalType": "address",
          "name": "receiver",
          "type": "address"
        }
      ],
      "name": "ERC721InvalidReceiver",
      "type": "error"
    },
    {
      "inputs": [
        {
          "internalType": "address",
          "name": "sender",
          "type": "address"
        }
      ],
      "name": "ERC721InvalidSender",
      "type": "error"
    },
    {
      "inputs": [
        {
          "internalType": "uint256",
          "name": "tokenId",
          "type": "uint256"
        }
      ],
      "name": "ERC721NonexistentToken",
      "type": "error"
    },
    {
      "inputs": [
        {
          "internalType": "address",
          "name": "owner",
          "type": "address"
        }
      ],
      "name": "OwnableInvalidOwner",
      "type": "error"
    },
    {
      "inputs": [
        {
          "internalType": "address",
          "name": "account",
          "type": "address"
        }
      ],
      "name": "OwnableUnauthorizedAccount",
      "type": "error"
    },
    {
      "anonymous": false,
      "inputs": [
        {
          "indexed": true,
          "internalType": "address",
          "name": "owner",
          "type": "address"
        },
        {
          "indexed": true,
          "internalType": "address",
          "name": "approved",
          "type": "address"
        },
        {
          "indexed": true,
          "internalType": "uint256",
          "name": "tokenId",
          "type": "uint256"
        }
      ],
      "name": "Approval",
      "type": "event"
    },
    {
      "anonymous": false,
      "inputs": [
        {
          "indexed": true,
          "internalType": "address",
          "name": "owner",
          "type": "address"
        },
        {
          "indexed": true,
          "internalType": "address",
          "name": "operator",
          "type": "address"
        },
        {
          "indexed": false,
          "internalType": "bool",
          "name": "approved",
          "type": "bool"
        }
      ],
      "name": "ApprovalForAll",
      "type": "event"
    },
    {
      "anonymous": false,
      "inputs": [
        {
          "indexed": false,
          "internalType": "uint256",
          "name": "_fromTokenId",
          "type": "uint256"
        },
        {
          "indexed": false,
          "internalType": "uint256",
          "name": "_toTokenId",
          "type": "uint256"
        }
      ],
      "name": "BatchMetadataUpdate",
      "type": "event"
    },
    {
      "anonymous": false,
      "inputs": [
        {
          "indexed": false,
          "internalType": "uint256",
          "name": "_tokenId",
          "type": "uint256"
        }
      ],
      "name": "MetadataUpdate",
      "type": "event"
    },
    {
      "anonymous": false,
      "inputs": [
        {
          "indexed": true,
          "internalType": "uint256",
          "name": "tokenId",
          "type": "uint256"
        },
        {
          "indexed": false,
          "internalType": "string",
          "name": "baseURI",
          "type": "string"
        },
        {
          "indexed": false,
          "internalType": "uint256",
          "name": "totalSupply",
          "type": "uint256"
        }
      ],
      "name": "NFTCollectionCreated",
      "type": "event"
    },
    {
      "anonymous": false,
      "inputs": [
        {
          "indexed": true,
          "internalType": "uint256",
          "name": "tokenId",
          "type": "uint256"
        },
        {
          "indexed": true,
          "internalType": "address",
          "name": "minter",
          "type": "address"
        }
      ],
      "name": "NFTMinted",
      "type": "event"
    },
    {
      "anonymous": false,
      "inputs": [
        {
          "indexed": true,
          "internalType": "address",
          "name": "previousOwner",
          "type": "address"
        },
        {
          "indexed": true,
          "internalType": "address",
          "name": "newOwner",
          "type": "address"
        }
      ],
      "name": "OwnershipTransferred",
      "type": "event"
    },
    {
      "anonymous": false,
      "inputs": [
        {
          "indexed": true,
          "internalType": "address",
          "name": "from",
          "type": "address"
        },
        {
          "indexed": true,
          "internalType": "address",
          "name": "to",
          "type": "address"
        },
        {
          "indexed": true,
          "internalType": "uint256",
          "name": "tokenId",
          "type": "uint256"
        }
      ],
      "name": "Transfer",
      "type": "event"
    },
    {
      "inputs": [
        {
          "internalType": "address",
          "name": "to",
          "type": "address"
        },
        {
          "internalType": "uint256",
          "name": "tokenId",
          "type": "uint256"
        }
      ],
      "name": "approve",
      "outputs": [],
      "stateMutability": "nonpayable",
      "type": "function"
    },
    {
      "inputs": [
        {
          "internalType": "address",
          "name": "owner",
          "type": "address"
        }
      ],
      "name": "balanceOf",
      "outputs": [
        {
          "internalType": "uint256",
          "name": "",
          "type": "uint256"
        }
      ],
      "stateMutability": "view",
      "type": "function",
      "constant": true
    },
    {
      "inputs": [
        {
          "internalType": "uint256",
          "name": "tokenId",
          "type": "uint256"
        }
      ],
      "name": "getApproved",
      "outputs": [
        {
          "internalType": "address",
          "name": "",
          "type": "address"
        }
      ],
      "stateMutability": "view",
      "type": "function",
      "constant": true
    },
    {
      "inputs": [
        {
          "internalType": "address",
          "name": "owner",
          "type": "address"
        },
        {
          "internalType": "address",
          "name": "operator",
          "type": "address"
        }
      ],
      "name": "isApprovedForAll",
      "outputs": [
        {
          "internalType": "bool",
          "name": "",
          "type": "bool"
        }
      ],
      "stateMutability": "view",
      "type": "function",
      "constant": true
    },
    {
      "inputs": [],
      "name": "name",
      "outputs": [
        {
          "internalType": "string",
          "name": "",
          "type": "string"
        }
      ],
      "stateMutability": "view",
      "type": "function",
      "constant": true
    },
    {
      "inputs": [
        {
          "internalType": "uint256",
          "name": "",
          "type": "uint256"
        }
      ],
      "name": "nftCollections",
      "outputs": [
        {
          "internalType": "string",
          "name": "baseURI",
          "type": "string"
        },
        {
          "internalType": "uint256",
          "name": "totalSupply",
          "type": "uint256"
        },
        {
          "internalType": "uint256",
          "name": "minted",
          "type": "uint256"
        }
      ],
      "stateMutability": "view",
      "type": "function",
      "constant": true
    },
    {
      "inputs": [],
      "name": "owner",
      "outputs": [
        {
          "internalType": "address",
          "name": "",
          "type": "address"
        }
      ],
      "stateMutability": "view",
      "type": "function",
      "constant": true
    },
    {
      "inputs": [
        {
          "internalType": "uint256",
          "name": "tokenId",
          "type": "uint256"
        }
      ],
      "name": "ownerOf",
      "outputs": [
        {
          "internalType": "address",
          "name": "",
          "type": "address"
        }
      ],
      "stateMutability": "view",
      "type": "function",
      "constant": true
    },
    {
      "inputs": [],
      "name": "renounceOwnership",
      "outputs": [],
      "stateMutability": "nonpayable",
      "type": "function"
    },
    {
      "inputs": [
        {
          "internalType": "address",
          "name": "from",
          "type": "address"
        },
        {
          "internalType": "address",
          "name": "to",
          "type": "address"
        },
        {
          "internalType": "uint256",
          "name": "tokenId",
          "type": "uint256"
        }
      ],
      "name": "safeTransferFrom",
      "outputs": [],
      "stateMutability": "nonpayable",
      "type": "function"
    },
    {
      "inputs": [
        {
          "internalType": "address",
          "name": "from",
          "type": "address"
        },
        {
          "internalType": "address",
          "name": "to",
          "type": "address"
        },
        {
          "internalType": "uint256",
          "name": "tokenId",
          "type": "uint256"
        },
        {
          "internalType": "bytes",
          "name": "data",
          "type": "bytes"
        }
      ],
      "name": "safeTransferFrom",
      "outputs": [],
      "stateMutability": "nonpayable",
      "type": "function"
    },
    {
      "inputs": [
        {
          "internalType": "address",
          "name": "operator",
          "type": "address"
        },
        {
          "internalType": "bool",
          "name": "approved",
          "type": "bool"
        }
      ],
      "name": "setApprovalForAll",
      "outputs": [],
      "stateMutability": "nonpayable",
      "type": "function"
    },
    {
      "inputs": [
        {
          "internalType": "bytes4",
          "name": "interfaceId",
          "type": "bytes4"
        }
      ],
      "name": "supportsInterface",
      "outputs": [
        {
          "internalType": "bool",
          "name": "",
          "type": "bool"
        }
      ],
      "stateMutability": "view",
      "type": "function",
      "constant": true
    },
    {
      "inputs": [],
      "name": "symbol",
      "outputs": [
        {
          "internalType": "string",
          "name": "",
          "type": "string"
        }
      ],
      "stateMutability": "view",
      "type": "function",
      "constant": true
    },
    {
      "inputs": [],
      "name": "tokenCounter",
      "outputs": [
        {
          "internalType": "uint256",
          "name": "",
          "type": "uint256"
        }
      ],
      "stateMutability": "view",
      "type": "function",
      "constant": true
    },
    {
      "inputs": [
        {
          "internalType": "uint256",
          "name": "tokenId",
          "type": "uint256"
        }
      ],
      "name": "tokenURI",
      "outputs": [
        {
          "internalType": "string",
          "name": "",
          "type": "string"
        }
      ],
      "stateMutability": "view",
      "type": "function",
      "constant": true
    },
    {
      "inputs": [
        {
          "internalType": "address",
          "name": "from",
          "type": "address"
        },
        {
          "internalType": "address",
          "name": "to",
          "type": "address"
        },
        {
          "internalType": "uint256",
          "name": "tokenId",
          "type": "uint256"
        }
      ],
      "name": "transferFrom",
      "outputs": [],
      "stateMutability": "nonpayable",
      "type": "function"
    },
    {
      "inputs": [
        {
          "internalType": "address",
          "name": "newOwner",
          "type": "address"
        }
      ],
      "name": "transferOwnership",
      "outputs": [],
      "stateMutability": "nonpayable",
      "type": "function"
    },
    {
      "inputs": [
        {
          "internalType": "string",
          "name": "baseURI",
          "type": "string"
        },
        {
          "internalType": "uint256",
          "name": "totalSupply",
          "type": "uint256"
        }
      ],
      "name": "createNFTCollection",
      "outputs": [
        {
          "internalType": "uint256",
          "name": "",
          "type": "uint256"
        }
      ],
      "stateMutability": "nonpayable",
      "type": "function"
    },
    {
      "inputs": [
        {
          "internalType": "uint256",
          "name": "collectionId",
          "type": "uint256"
        }
      ],
      "name": "mintNFT",
      "outputs": [],
      "stateMutability": "nonpayable",
      "type": "function"
    },
    {
      "inputs": [
        {
          "internalType": "uint256",
          "name": "collectionId",
          "type": "uint256"
        }
      ],
      "name": "getNFTCollectionDetails",
      "outputs": [
        {
          "internalType": "string",
          "name": "",
          "type": "string"
        },
        {
          "internalType": "uint256",
          "name": "",
          "type": "uint256"
        },
        {
          "internalType": "uint256",
          "name": "",
          "type": "uint256"
        }
      ],
      "stateMutability": "view",
      "type": "function",
      "constant": true
    }
  ],
  "bytecode": "0x608060405234801562000010575f80fd5b50336040518060400160405280600f81526020017f4d794e4654436f6c6c656374696f6e00000000000000000000000000000000008152506040518060400160405280600481526020017f4d4e465400000000000000000000000000000000000000000000000000000000815250815f90816200008e91906200045c565b508060019081620000a091906200045c565b5050505f73ffffffffffffffffffffffffffffffffffffffff168173ffffffffffffffffffffffffffffffffffffffff160362000116575f6040517f1e4fbdf70000000000000000000000000000000000000000000000000000000081526004016200010d919062000583565b60405180910390fd5b62000127816200013560201b60201c565b505f6008819055506200059e565b5f60075f9054906101000a900473ffffffffffffffffffffffffffffffffffffffff1690508160075f6101000a81548173ffffffffffffffffffffffffffffffffffffffff021916908373ffffffffffffffffffffffffffffffffffffffff1602179055508173ffffffffffffffffffffffffffffffffffffffff168173ffffffffffffffffffffffffffffffffffffffff167f8be0079c531659141344cd1fd0a4f28419497f9722a3daafe3b4186f6b6457e060405160405180910390a35050565b5f81519050919050565b7f4e487b71000000000000000000000000000000000000000000000000000000005f52604160045260245ffd5b7f4e487b71000000000000000000000000000000000000000000000000000000005f52602260045260245ffd5b5f60028204905060018216806200027457607f821691505b6020821081036200028a57620002896200022f565b5b50919050565b5f819050815f5260205f209050919050565b5f6020601f8301049050919050565b5f82821b905092915050565b5f60088302620002ee7fffffffffffffffffffffffffffffffffffffffffffffffffffffffffffffffff82620002b1565b620002fa8683620002b1565b95508019841693508086168417925050509392505050565b5f819050919050565b5f819050919050565b5f620003446200033e620003388462000312565b6200031b565b62000312565b9050919050565b5f819050919050565b6200035f8362000324565b620003776200036e826200034b565b848454620002bd565b825550505050565b5f90565b6200038d6200037f565b6200039a81848462000354565b505050565b5b81811015620003c157620003b55f8262000383565b600181019050620003a0565b5050565b601f8211156200041057620003da8162000290565b620003e584620002a2565b81016020851015620003f5578190505b6200040d6200040485620002a2565b8301826200039f565b50505b505050565b5f82821c905092915050565b5f620004325f198460080262000415565b1980831691505092915050565b5f6200044c838362000421565b9150826002028217905092915050565b6200046782620001f8565b67ffffffffffffffff81111562000483576200048262000202565b5b6200048f82546200025c565b6200049c828285620003c5565b5f60209050601f831160018114620004d2575f8415620004bd578287015190505b620004c985826200043f565b86555062000538565b601f198416620004e28662000290565b5f5b828110156200050b57848901518255600182019150602085019450602081019050620004e4565b868310156200052b578489015162000527601f89168262000421565b8355505b6001600288020188555050505b505050505050565b5f73ffffffffffffffffffffffffffffffffffffffff82169050919050565b5f6200056b8262000540565b9050919050565b6200057d816200055f565b82525050565b5f602082019050620005985f83018462000572565b92915050565b612b8280620005ac5f395ff3fe608060405234801561000f575f80fd5b5060043610610135575f3560e01c8063715018a6116100b6578063b88d4fde1161007a578063b88d4fde1461034b578063bfca66c914610367578063c87b56dd14610399578063d082e381146103c9578063e985e9c5146103e7578063f2fde38b1461041757610135565b8063715018a6146102cd5780638da5cb5b146102d757806392642744146102f557806395d89b4114610311578063a22cb4651461032f57610135565b806323b872dd116100fd57806323b872dd1461020557806339fbc5e31461022157806342842e0e146102515780636352211e1461026d57806370a082311461029d57610135565b8063010c9c941461013957806301ffc9a71461016b57806306fdde031461019b578063081812fc146101b9578063095ea7b3146101e9575b5f80fd5b610153600480360381019061014e9190611ed3565b610433565b60405161016293929190611f97565b60405180910390f35b61018560048036038101906101809190612028565b610515565b604051610192919061206d565b60405180910390f35b6101a3610575565b6040516101b09190612086565b60405180910390f35b6101d360048036038101906101ce9190611ed3565b610604565b6040516101e091906120e5565b60405180910390f35b61020360048036038101906101fe9190612128565b61061f565b005b61021f600480360381019061021a9190612166565b610635565b005b61023b600480360381019061023691906122e2565b610734565b604051610248919061233c565b60405180910390f35b61026b60048036038101906102669190612166565b6107f5565b005b61028760048036038101906102829190611ed3565b610814565b60405161029491906120e5565b60405180910390f35b6102b760048036038101906102b29190612355565b610825565b6040516102c4919061233c565b60405180910390f35b6102d56108db565b005b6102df6108ee565b6040516102ec91906120e5565b60405180910390f35b61030f600480360381019061030a9190611ed3565b610916565b005b610319610ad4565b6040516103269190612086565b60405180910390f35b610349600480360381019061034491906123aa565b610b64565b005b61036560048036038101906103609190612486565b610b7a565b005b610381600480360381019061037c9190611ed3565b610b97565b60405161039093929190611f97565b60405180910390f35b6103b360048036038101906103ae9190611ed3565b610c43565b6040516103c09190612086565b60405180910390f35b6103d1610d4e565b6040516103de919061233c565b60405180910390f35b61040160048036038101906103fc9190612506565b610d54565b60405161040e919061206d565b60405180910390f35b610431600480360381019061042c9190612355565b610de2565b005b60605f805f60095f8681526020019081526020015f206040518060600160405290815f8201805461046390612571565b80601f016020809104026020016040519081016040528092919081815260200182805461048f90612571565b80156104da5780601f106104b1576101008083540402835291602001916104da565b820191905f5260205f20905b8154815290600101906020018083116104bd57829003601f168201915b50505050508152602001600182015481526020016002820154815250509050805f015181602001518260400151935093509350509193909250565b5f634906490660e01b7bffffffffffffffffffffffffffffffffffffffffffffffffffffffff1916827bffffffffffffffffffffffffffffffffffffffffffffffffffffffff1916148061056e575061056d82610e66565b5b9050919050565b60605f805461058390612571565b80601f01602080910402602001604051908101604052809291908181526020018280546105af90612571565b80156105fa5780601f106105d1576101008083540402835291602001916105fa565b820191905f5260205f20905b8154815290600101906020018083116105dd57829003601f168201915b5050505050905090565b5f61060e82610f47565b5061061882610fcd565b9050919050565b610631828261062c611006565b61100d565b5050565b5f73ffffffffffffffffffffffffffffffffffffffff168273ffffffffffffffffffffffffffffffffffffffff16036106a5575f6040517f64a0ae9200000000000000000000000000000000000000000000000000000000815260040161069c91906120e5565b60405180910390fd5b5f6106b883836106b3611006565b61101f565b90508373ffffffffffffffffffffffffffffffffffffffff168173ffffffffffffffffffffffffffffffffffffffff161461072e578382826040517f64283d7b000000000000000000000000000000000000000000000000000000008152600401610725939291906125a1565b60405180910390fd5b50505050565b5f61073d61122a565b5f600854905060405180606001604052808581526020018481526020015f81525060095f8381526020019081526020015f205f820151815f0190816107829190612773565b506020820151816001015560408201518160020155905050807f45f277901866da3e61749a259dc60fb023e34206569ae77da9e0475051b9eef185856040516107cc929190612842565b60405180910390a260085f8154809291906107e69061289d565b91905055508091505092915050565b61080f83838360405180602001604052805f815250610b7a565b505050565b5f61081e82610f47565b9050919050565b5f8073ffffffffffffffffffffffffffffffffffffffff168273ffffffffffffffffffffffffffffffffffffffff1603610896575f6040517f89c62b6400000000000000000000000000000000000000000000000000000000815260040161088d91906120e5565b60405180910390fd5b60035f8373ffffffffffffffffffffffffffffffffffffffff1673ffffffffffffffffffffffffffffffffffffffff1681526020019081526020015f20549050919050565b6108e361122a565b6108ec5f6112b1565b565b5f60075f9054906101000a900473ffffffffffffffffffffffffffffffffffffffff16905090565b60095f8281526020019081526020015f206001015460095f8381526020019081526020015f206002015410610980576040517f08c379a00000000000000000000000000000000000000000000000000000000081526004016109779061292e565b60405180910390fd5b5f60095f8381526020019081526020015f2060020154670de0b6b3a7640000836109aa919061294c565b6109b4919061298d565b90506109c03382611374565b610a638160095f8581526020019081526020015f205f0180546109e290612571565b80601f0160208091040260200160405190810160405280929190818152602001828054610a0e90612571565b8015610a595780601f10610a3057610100808354040283529160200191610a59565b820191905f5260205f20905b815481529060010190602001808311610a3c57829003601f168201915b5050505050611391565b60095f8381526020019081526020015f206002015f815480929190610a879061289d565b91905055503373ffffffffffffffffffffffffffffffffffffffff16817f0176f203df400d7bd5f1b1c9ef36c16709bf3b5d9fd35f000a6bae32393f66c360405160405180910390a35050565b606060018054610ae390612571565b80601f0160208091040260200160405190810160405280929190818152602001828054610b0f90612571565b8015610b5a5780601f10610b3157610100808354040283529160200191610b5a565b820191905f5260205f20905b815481529060010190602001808311610b3d57829003601f168201915b5050505050905090565b610b76610b6f611006565b83836113eb565b5050565b610b85848484610635565b610b9184848484611554565b50505050565b6009602052805f5260405f205f91509050805f018054610bb690612571565b80601f0160208091040260200160405190810160405280929190818152602001828054610be290612571565b8015610c2d5780601f10610c0457610100808354040283529160200191610c2d565b820191905f5260205f20905b815481529060010190602001808311610c1057829003601f168201915b5050505050908060010154908060020154905083565b6060610c4e82610f47565b505f60065f8481526020019081526020015f208054610c6c90612571565b80601f0160208091040260200160405190810160405280929190818152602001828054610c9890612571565b8015610ce35780601f10610cba57610100808354040283529160200191610ce3565b820191905f5260205f20905b815481529060010190602001808311610cc657829003601f168201915b505050505090505f610cf3611706565b90505f815103610d07578192505050610d49565b5f82511115610d3b578082604051602001610d239291906129fa565b60405160208183030381529060405292505050610d49565b610d448461171c565b925050505b919050565b60085481565b5f60055f8473ffffffffffffffffffffffffffffffffffffffff1673ffffffffffffffffffffffffffffffffffffffff1681526020019081526020015f205f8373ffffffffffffffffffffffffffffffffffffffff1673ffffffffffffffffffffffffffffffffffffffff1681526020019081526020015f205f9054906101000a900460ff16905092915050565b610dea61122a565b5f73ffffffffffffffffffffffffffffffffffffffff168173ffffffffffffffffffffffffffffffffffffffff1603610e5a575f6040517f1e4fbdf7000000000000000000000000000000000000000000000000000000008152600401610e5191906120e5565b60405180910390fd5b610e63816112b1565b50565b5f7f80ac58cd000000000000000000000000000000000000000000000000000000007bffffffffffffffffffffffffffffffffffffffffffffffffffffffff1916827bffffffffffffffffffffffffffffffffffffffffffffffffffffffff19161480610f3057507f5b5e139f000000000000000000000000000000000000000000000000000000007bffffffffffffffffffffffffffffffffffffffffffffffffffffffff1916827bffffffffffffffffffffffffffffffffffffffffffffffffffffffff1916145b80610f405750610f3f82611782565b5b9050919050565b5f80610f52836117eb565b90505f73ffffffffffffffffffffffffffffffffffffffff168173ffffffffffffffffffffffffffffffffffffffff1603610fc457826040517f7e273289000000000000000000000000000000000000000000000000000000008152600401610fbb919061233c565b60405180910390fd5b80915050919050565b5f60045f8381526020019081526020015f205f9054906101000a900473ffffffffffffffffffffffffffffffffffffffff169050919050565b5f33905090565b61101a8383836001611824565b505050565b5f8061102a846117eb565b90505f73ffffffffffffffffffffffffffffffffffffffff168373ffffffffffffffffffffffffffffffffffffffff161461106b5761106a8184866119e3565b5b5f73ffffffffffffffffffffffffffffffffffffffff168173ffffffffffffffffffffffffffffffffffffffff16146110f6576110aa5f855f80611824565b600160035f8373ffffffffffffffffffffffffffffffffffffffff1673ffffffffffffffffffffffffffffffffffffffff1681526020019081526020015f205f82825403925050819055505b5f73ffffffffffffffffffffffffffffffffffffffff168573ffffffffffffffffffffffffffffffffffffffff161461117557600160035f8773ffffffffffffffffffffffffffffffffffffffff1673ffffffffffffffffffffffffffffffffffffffff1681526020019081526020015f205f82825401925050819055505b8460025f8681526020019081526020015f205f6101000a81548173ffffffffffffffffffffffffffffffffffffffff021916908373ffffffffffffffffffffffffffffffffffffffff160217905550838573ffffffffffffffffffffffffffffffffffffffff168273ffffffffffffffffffffffffffffffffffffffff167fddf252ad1be2c89b69c2b068fc378daa952ba7f163c4a11628f55a4df523b3ef60405160405180910390a4809150509392505050565b611232611006565b73ffffffffffffffffffffffffffffffffffffffff166112506108ee565b73ffffffffffffffffffffffffffffffffffffffff16146112af57611273611006565b6040517f118cdaa70000000000000000000000000000000000000000000000000000000081526004016112a691906120e5565b60405180910390fd5b565b5f60075f9054906101000a900473ffffffffffffffffffffffffffffffffffffffff1690508160075f6101000a81548173ffffffffffffffffffffffffffffffffffffffff021916908373ffffffffffffffffffffffffffffffffffffffff1602179055508173ffffffffffffffffffffffffffffffffffffffff168173ffffffffffffffffffffffffffffffffffffffff167f8be0079c531659141344cd1fd0a4f28419497f9722a3daafe3b4186f6b6457e060405160405180910390a35050565b61138d828260405180602001604052805f815250611aa6565b5050565b8060065f8481526020019081526020015f2090816113af9190612773565b507ff8e1a15aba9398e019f0b49df1a4fde98ee17ae345cb5f6b5e2c27f5033e8ce7826040516113df919061233c565b60405180910390a15050565b5f73ffffffffffffffffffffffffffffffffffffffff168273ffffffffffffffffffffffffffffffffffffffff160361145b57816040517f5b08ba1800000000000000000000000000000000000000000000000000000000815260040161145291906120e5565b60405180910390fd5b8060055f8573ffffffffffffffffffffffffffffffffffffffff1673ffffffffffffffffffffffffffffffffffffffff1681526020019081526020015f205f8473ffffffffffffffffffffffffffffffffffffffff1673ffffffffffffffffffffffffffffffffffffffff1681526020019081526020015f205f6101000a81548160ff0219169083151502179055508173ffffffffffffffffffffffffffffffffffffffff168373ffffffffffffffffffffffffffffffffffffffff167f17307eab39ab6107e8899845ad3d59bd9653f200f220920489ca2b5937696c3183604051611547919061206d565b60405180910390a3505050565b5f8373ffffffffffffffffffffffffffffffffffffffff163b1115611700578273ffffffffffffffffffffffffffffffffffffffff1663150b7a02611597611006565b8685856040518563ffffffff1660e01b81526004016115b99493929190612a6f565b6020604051808303815f875af19250505080156115f457506040513d601f19601f820116820180604052508101906115f19190612acd565b60015b611675573d805f8114611622576040519150601f19603f3d011682016040523d82523d5f602084013e611627565b606091505b505f81510361166d57836040517f64a0ae9200000000000000000000000000000000000000000000000000000000815260040161166491906120e5565b60405180910390fd5b805181602001fd5b63150b7a0260e01b7bffffffffffffffffffffffffffffffffffffffffffffffffffffffff1916817bffffffffffffffffffffffffffffffffffffffffffffffffffffffff1916146116fe57836040517f64a0ae920000000000000000000000000000000000000000000000000000000081526004016116f591906120e5565b60405180910390fd5b505b50505050565b606060405180602001604052805f815250905090565b606061172782610f47565b505f611731611706565b90505f81511161174f5760405180602001604052805f81525061177a565b8061175984611ac1565b60405160200161176a9291906129fa565b6040516020818303038152906040525b915050919050565b5f7f01ffc9a7000000000000000000000000000000000000000000000000000000007bffffffffffffffffffffffffffffffffffffffffffffffffffffffff1916827bffffffffffffffffffffffffffffffffffffffffffffffffffffffff1916149050919050565b5f60025f8381526020019081526020015f205f9054906101000a900473ffffffffffffffffffffffffffffffffffffffff169050919050565b808061185c57505f73ffffffffffffffffffffffffffffffffffffffff168273ffffffffffffffffffffffffffffffffffffffff1614155b1561198e575f61186b84610f47565b90505f73ffffffffffffffffffffffffffffffffffffffff168373ffffffffffffffffffffffffffffffffffffffff16141580156118d557508273ffffffffffffffffffffffffffffffffffffffff168173ffffffffffffffffffffffffffffffffffffffff1614155b80156118e857506118e68184610d54565b155b1561192a57826040517fa9fbf51f00000000000000000000000000000000000000000000000000000000815260040161192191906120e5565b60405180910390fd5b811561198c57838573ffffffffffffffffffffffffffffffffffffffff168273ffffffffffffffffffffffffffffffffffffffff167f8c5be1e5ebec7d5bd14f71427d1e84f3dd0314c0f7b2291e5b200ac8c7c3b92560405160405180910390a45b505b8360045f8581526020019081526020015f205f6101000a81548173ffffffffffffffffffffffffffffffffffffffff021916908373ffffffffffffffffffffffffffffffffffffffff16021790555050505050565b6119ee838383611b8b565b611aa1575f73ffffffffffffffffffffffffffffffffffffffff168373ffffffffffffffffffffffffffffffffffffffff1603611a6257806040517f7e273289000000000000000000000000000000000000000000000000000000008152600401611a59919061233c565b60405180910390fd5b81816040517f177e802f000000000000000000000000000000000000000000000000000000008152600401611a98929190612af8565b60405180910390fd5b505050565b611ab08383611c4b565b611abc5f848484611554565b505050565b60605f6001611acf84611d3e565b0190505f8167ffffffffffffffff811115611aed57611aec6121be565b5b6040519080825280601f01601f191660200182016040528015611b1f5781602001600182028036833780820191505090505b5090505f82602001820190505b600115611b80578080600190039150507f3031323334353637383961626364656600000000000000000000000000000000600a86061a8153600a8581611b7557611b74612b1f565b5b0494505f8503611b2c575b819350505050919050565b5f8073ffffffffffffffffffffffffffffffffffffffff168373ffffffffffffffffffffffffffffffffffffffff1614158015611c4257508273ffffffffffffffffffffffffffffffffffffffff168473ffffffffffffffffffffffffffffffffffffffff161480611c035750611c028484610d54565b5b80611c4157508273ffffffffffffffffffffffffffffffffffffffff16611c2983610fcd565b73ffffffffffffffffffffffffffffffffffffffff16145b5b90509392505050565b5f73ffffffffffffffffffffffffffffffffffffffff168273ffffffffffffffffffffffffffffffffffffffff1603611cbb575f6040517f64a0ae92000000000000000000000000000000000000000000000000000000008152600401611cb291906120e5565b60405180910390fd5b5f611cc783835f61101f565b90505f73ffffffffffffffffffffffffffffffffffffffff168173ffffffffffffffffffffffffffffffffffffffff1614611d39575f6040517f73c6ac6e000000000000000000000000000000000000000000000000000000008152600401611d3091906120e5565b60405180910390fd5b505050565b5f805f90507a184f03e93ff9f4daa797ed6e38ed64bf6a1f0100000000000000008310611d9a577a184f03e93ff9f4daa797ed6e38ed64bf6a1f0100000000000000008381611d9057611d8f612b1f565b5b0492506040810190505b6d04ee2d6d415b85acef81000000008310611dd7576d04ee2d6d415b85acef81000000008381611dcd57611dcc612b1f565b5b0492506020810190505b662386f26fc100008310611e0657662386f26fc100008381611dfc57611dfb612b1f565b5b0492506010810190505b6305f5e1008310611e2f576305f5e1008381611e2557611e24612b1f565b5b0492506008810190505b6127108310611e54576127108381611e4a57611e49612b1f565b5b0492506004810190505b60648310611e775760648381611e6d57611e6c612b1f565b5b0492506002810190505b600a8310611e86576001810190505b80915050919050565b5f604051905090565b5f80fd5b5f80fd5b5f819050919050565b611eb281611ea0565b8114611ebc575f80fd5b50565b5f81359050611ecd81611ea9565b92915050565b5f60208284031215611ee857611ee7611e98565b5b5f611ef584828501611ebf565b91505092915050565b5f81519050919050565b5f82825260208201905092915050565b5f5b83811015611f35578082015181840152602081019050611f1a565b5f8484015250505050565b5f601f19601f8301169050919050565b5f611f5a82611efe565b611f648185611f08565b9350611f74818560208601611f18565b611f7d81611f40565b840191505092915050565b611f9181611ea0565b82525050565b5f6060820190508181035f830152611faf8186611f50565b9050611fbe6020830185611f88565b611fcb6040830184611f88565b949350505050565b5f7fffffffff0000000000000000000000000000000000000000000000000000000082169050919050565b61200781611fd3565b8114612011575f80fd5b50565b5f8135905061202281611ffe565b92915050565b5f6020828403121561203d5761203c611e98565b5b5f61204a84828501612014565b91505092915050565b5f8115159050919050565b61206781612053565b82525050565b5f6020820190506120805f83018461205e565b92915050565b5f6020820190508181035f83015261209e8184611f50565b905092915050565b5f73ffffffffffffffffffffffffffffffffffffffff82169050919050565b5f6120cf826120a6565b9050919050565b6120df816120c5565b82525050565b5f6020820190506120f85f8301846120d6565b92915050565b612107816120c5565b8114612111575f80fd5b50565b5f81359050612122816120fe565b92915050565b5f806040838503121561213e5761213d611e98565b5b5f61214b85828601612114565b925050602061215c85828601611ebf565b9150509250929050565b5f805f6060848603121561217d5761217c611e98565b5b5f61218a86828701612114565b935050602061219b86828701612114565b92505060406121ac86828701611ebf565b9150509250925092565b5f80fd5b5f80fd5b7f4e487b71000000000000000000000000000000000000000000000000000000005f52604160045260245ffd5b6121f482611f40565b810181811067ffffffffffffffff82111715612213576122126121be565b5b80604052505050565b5f612225611e8f565b905061223182826121eb565b919050565b5f67ffffffffffffffff8211156122505761224f6121be565b5b61225982611f40565b9050602081019050919050565b828183375f83830152505050565b5f61228661228184612236565b61221c565b9050828152602081018484840111156122a2576122a16121ba565b5b6122ad848285612266565b509392505050565b5f82601f8301126122c9576122c86121b6565b5b81356122d9848260208601612274565b91505092915050565b5f80604083850312156122f8576122f7611e98565b5b5f83013567ffffffffffffffff81111561231557612314611e9c565b5b612321858286016122b5565b925050602061233285828601611ebf565b9150509250929050565b5f60208201905061234f5f830184611f88565b92915050565b5f6020828403121561236a57612369611e98565b5b5f61237784828501612114565b91505092915050565b61238981612053565b8114612393575f80fd5b50565b5f813590506123a481612380565b92915050565b5f80604083850312156123c0576123bf611e98565b5b5f6123cd85828601612114565b92505060206123de85828601612396565b9150509250929050565b5f67ffffffffffffffff821115612402576124016121be565b5b61240b82611f40565b9050602081019050919050565b5f61242a612425846123e8565b61221c565b905082815260208101848484011115612446576124456121ba565b5b612451848285612266565b509392505050565b5f82601f83011261246d5761246c6121b6565b5b813561247d848260208601612418565b91505092915050565b5f805f806080858703121561249e5761249d611e98565b5b5f6124ab87828801612114565b94505060206124bc87828801612114565b93505060406124cd87828801611ebf565b925050606085013567ffffffffffffffff8111156124ee576124ed611e9c565b5b6124fa87828801612459565b91505092959194509250565b5f806040838503121561251c5761251b611e98565b5b5f61252985828601612114565b925050602061253a85828601612114565b9150509250929050565b7f4e487b71000000000000000000000000000000000000000000000000000000005f52602260045260245ffd5b5f600282049050600182168061258857607f821691505b60208210810361259b5761259a612544565b5b50919050565b5f6060820190506125b45f8301866120d6565b6125c16020830185611f88565b6125ce60408301846120d6565b949350505050565b5f819050815f5260205f209050919050565b5f6020601f8301049050919050565b5f82821b905092915050565b5f600883026126327fffffffffffffffffffffffffffffffffffffffffffffffffffffffffffffffff826125f7565b61263c86836125f7565b95508019841693508086168417925050509392505050565b5f819050919050565b5f61267761267261266d84611ea0565b612654565b611ea0565b9050919050565b5f819050919050565b6126908361265d565b6126a461269c8261267e565b848454612603565b825550505050565b5f90565b6126b86126ac565b6126c3818484612687565b505050565b5b818110156126e6576126db5f826126b0565b6001810190506126c9565b5050565b601f82111561272b576126fc816125d6565b612705846125e8565b81016020851015612714578190505b612728612720856125e8565b8301826126c8565b50505b505050565b5f82821c905092915050565b5f61274b5f1984600802612730565b1980831691505092915050565b5f612763838361273c565b9150826002028217905092915050565b61277c82611efe565b67ffffffffffffffff811115612795576127946121be565b5b61279f8254612571565b6127aa8282856126ea565b5f60209050601f8311600181146127db575f84156127c9578287015190505b6127d38582612758565b86555061283a565b601f1984166127e9866125d6565b5f5b82811015612810578489015182556001820191506020850194506020810190506127eb565b8683101561282d5784890151612829601f89168261273c565b8355505b6001600288020188555050505b505050505050565b5f6040820190508181035f83015261285a8185611f50565b90506128696020830184611f88565b9392505050565b7f4e487b71000000000000000000000000000000000000000000000000000000005f52601160045260245ffd5b5f6128a782611ea0565b91507fffffffffffffffffffffffffffffffffffffffffffffffffffffffffffffffff82036128d9576128d8612870565b5b600182019050919050565b7f416c6c204e465473206d696e74656400000000000000000000000000000000005f82015250565b5f612918600f83611f08565b9150612923826128e4565b602082019050919050565b5f6020820190508181035f8301526129458161290c565b9050919050565b5f61295682611ea0565b915061296183611ea0565b925082820261296f81611ea0565b9150828204841483151761298657612985612870565b5b5092915050565b5f61299782611ea0565b91506129a283611ea0565b92508282019050808211156129ba576129b9612870565b5b92915050565b5f81905092915050565b5f6129d482611efe565b6129de81856129c0565b93506129ee818560208601611f18565b80840191505092915050565b5f612a0582856129ca565b9150612a1182846129ca565b91508190509392505050565b5f81519050919050565b5f82825260208201905092915050565b5f612a4182612a1d565b612a4b8185612a27565b9350612a5b818560208601611f18565b612a6481611f40565b840191505092915050565b5f608082019050612a825f8301876120d6565b612a8f60208301866120d6565b612a9c6040830185611f88565b8181036060830152612aae8184612a37565b905095945050505050565b5f81519050612ac781611ffe565b92915050565b5f60208284031215612ae257612ae1611e98565b5b5f612aef84828501612ab9565b91505092915050565b5f604082019050612b0b5f8301856120d6565b612b186020830184611f88565b9392505050565b7f4e487b71000000000000000000000000000000000000000000000000000000005f52601260045260245ffdfea2646970667358221220b6d13308eae9c6bc0ccdb61f367f644c6b14b4959f3c91d858224ee0d6daaa2764736f6c63430008140033",
  "immutableReferences": {},
  "source": "// SPDX-License-Identifier: MIT\r\npragma solidity ^0.8.0;\r\n\r\nimport \"@openzeppelin/contracts/token/ERC721/extensions/ERC721URIStorage.sol\";\r\nimport \"@openzeppelin/contracts/access/Ownable.sol\";\r\n\r\ncontract MyNFT is ERC721URIStorage, Ownable {\r\n    uint256 public tokenCounter;\r\n\r\n    struct NFTCollection {\r\n        string baseURI;\r\n        uint256 totalSupply;\r\n        uint256 minted;\r\n    }\r\n\r\n    mapping(uint256 => NFTCollection) public nftCollections;\r\n\r\n    event NFTCollectionCreated(uint256 indexed tokenId, string baseURI, uint256 totalSupply);\r\n    event NFTMinted(uint256 indexed tokenId, address indexed minter);\r\n\r\n    constructor() ERC721(\"MyNFTCollection\", \"MNFT\") Ownable(msg.sender) {\r\n        tokenCounter = 0;\r\n    }\r\n\r\n    function createNFTCollection(string memory baseURI, uint256 totalSupply) public onlyOwner returns (uint256) {\r\n        uint256 newTokenId = tokenCounter;\r\n        nftCollections[newTokenId] = NFTCollection(baseURI, totalSupply, 0);\r\n        emit NFTCollectionCreated(newTokenId, baseURI, totalSupply);\r\n        tokenCounter++;\r\n        return newTokenId;\r\n    }\r\n\r\n    function mintNFT(uint256 collectionId) public {\r\n        require(nftCollections[collectionId].minted < nftCollections[collectionId].totalSupply, \"All NFTs minted\");\r\n        uint256 newTokenId = collectionId * 1e18 + nftCollections[collectionId].minted;\r\n        _safeMint(msg.sender, newTokenId);\r\n        _setTokenURI(newTokenId, nftCollections[collectionId].baseURI);\r\n        nftCollections[collectionId].minted++;\r\n        emit NFTMinted(newTokenId, msg.sender);\r\n    }\r\n\r\n    function getNFTCollectionDetails(uint256 collectionId) public view returns (string memory, uint256, uint256) {\r\n        NFTCollection memory nftCollection = nftCollections[collectionId];\r\n        return (nftCollection.baseURI, nftCollection.totalSupply, nftCollection.minted);\r\n    }\r\n}\r\n",
  "sourcePath": "C:\\GitHub\\en3-be\\contracts\\MyNFT.sol",
  "compiler": {
    "name": "solc",
    "version": "0.8.20+commit.a1b79de6.Emscripten.clang"
  },
  "schemaVersion": "3.4.16",
  "updatedAt": "2024-05-31T17:09:11.234Z",
  "networkType": "ethereum",
  "devdoc": {
    "errors": {
      "ERC721IncorrectOwner(address,uint256,address)": [
        {
          "details": "Indicates an error related to the ownership over a particular token. Used in transfers.",
          "params": {
            "owner": "Address of the current owner of a token.",
            "sender": "Address whose tokens are being transferred.",
            "tokenId": "Identifier number of a token."
          }
        }
      ],
      "ERC721InsufficientApproval(address,uint256)": [
        {
          "details": "Indicates a failure with the `operator`s approval. Used in transfers.",
          "params": {
            "operator": "Address that may be allowed to operate on tokens without being their owner.",
            "tokenId": "Identifier number of a token."
          }
        }
      ],
      "ERC721InvalidApprover(address)": [
        {
          "details": "Indicates a failure with the `approver` of a token to be approved. Used in approvals.",
          "params": {
            "approver": "Address initiating an approval operation."
          }
        }
      ],
      "ERC721InvalidOperator(address)": [
        {
          "details": "Indicates a failure with the `operator` to be approved. Used in approvals.",
          "params": {
            "operator": "Address that may be allowed to operate on tokens without being their owner."
          }
        }
      ],
      "ERC721InvalidOwner(address)": [
        {
          "details": "Indicates that an address can't be an owner. For example, `address(0)` is a forbidden owner in EIP-20. Used in balance queries.",
          "params": {
            "owner": "Address of the current owner of a token."
          }
        }
      ],
      "ERC721InvalidReceiver(address)": [
        {
          "details": "Indicates a failure with the token `receiver`. Used in transfers.",
          "params": {
            "receiver": "Address to which tokens are being transferred."
          }
        }
      ],
      "ERC721InvalidSender(address)": [
        {
          "details": "Indicates a failure with the token `sender`. Used in transfers.",
          "params": {
            "sender": "Address whose tokens are being transferred."
          }
        }
      ],
      "ERC721NonexistentToken(uint256)": [
        {
          "details": "Indicates a `tokenId` whose `owner` is the zero address.",
          "params": {
            "tokenId": "Identifier number of a token."
          }
        }
      ],
      "OwnableInvalidOwner(address)": [
        {
          "details": "The owner is not a valid owner account. (eg. `address(0)`)"
        }
      ],
      "OwnableUnauthorizedAccount(address)": [
        {
          "details": "The caller account is not authorized to perform an operation."
        }
      ]
    },
    "events": {
      "Approval(address,address,uint256)": {
        "details": "Emitted when `owner` enables `approved` to manage the `tokenId` token."
      },
      "ApprovalForAll(address,address,bool)": {
        "details": "Emitted when `owner` enables or disables (`approved`) `operator` to manage all of its assets."
      },
      "BatchMetadataUpdate(uint256,uint256)": {
        "details": "This event emits when the metadata of a range of tokens is changed. So that the third-party platforms such as NFT market could timely update the images and related attributes of the NFTs."
      },
      "MetadataUpdate(uint256)": {
        "details": "This event emits when the metadata of a token is changed. So that the third-party platforms such as NFT market could timely update the images and related attributes of the NFT."
      },
      "Transfer(address,address,uint256)": {
        "details": "Emitted when `tokenId` token is transferred from `from` to `to`."
      }
    },
    "kind": "dev",
    "methods": {
      "approve(address,uint256)": {
        "details": "See {IERC721-approve}."
      },
      "balanceOf(address)": {
        "details": "See {IERC721-balanceOf}."
      },
      "getApproved(uint256)": {
        "details": "See {IERC721-getApproved}."
      },
      "isApprovedForAll(address,address)": {
        "details": "See {IERC721-isApprovedForAll}."
      },
      "name()": {
        "details": "See {IERC721Metadata-name}."
      },
      "owner()": {
        "details": "Returns the address of the current owner."
      },
      "ownerOf(uint256)": {
        "details": "See {IERC721-ownerOf}."
      },
      "renounceOwnership()": {
        "details": "Leaves the contract without owner. It will not be possible to call `onlyOwner` functions. Can only be called by the current owner. NOTE: Renouncing ownership will leave the contract without an owner, thereby disabling any functionality that is only available to the owner."
      },
      "safeTransferFrom(address,address,uint256)": {
        "details": "See {IERC721-safeTransferFrom}."
      },
      "safeTransferFrom(address,address,uint256,bytes)": {
        "details": "See {IERC721-safeTransferFrom}."
      },
      "setApprovalForAll(address,bool)": {
        "details": "See {IERC721-setApprovalForAll}."
      },
      "supportsInterface(bytes4)": {
        "details": "See {IERC165-supportsInterface}"
      },
      "symbol()": {
        "details": "See {IERC721Metadata-symbol}."
      },
      "tokenURI(uint256)": {
        "details": "See {IERC721Metadata-tokenURI}."
      },
      "transferFrom(address,address,uint256)": {
        "details": "See {IERC721-transferFrom}."
      },
      "transferOwnership(address)": {
        "details": "Transfers ownership of the contract to a new account (`newOwner`). Can only be called by the current owner."
      }
    },
    "version": 1
  },
  "userdoc": {
    "kind": "user",
    "methods": {},
    "version": 1
  }
}