{
  "contractName": "MyNFT",
  "abi": [
    {
      "inputs": [],
      "stateMutability": "nonpayable",
      "type": "constructor"
    },
    {
      "inputs": [
        {
          "internalType": "address",
          "name": "sender",
          "type": "address"
        },
        {
          "internalType": "uint256",
          "name": "tokenId",
          "type": "uint256"
        },
        {
          "internalType": "address",
          "name": "owner",
          "type": "address"
        }
      ],
      "name": "ERC721IncorrectOwner",
      "type": "error"
    },
    {
      "inputs": [
        {
          "internalType": "address",
          "name": "operator",
          "type": "address"
        },
        {
          "internalType": "uint256",
          "name": "tokenId",
          "type": "uint256"
        }
      ],
      "name": "ERC721InsufficientApproval",
      "type": "error"
    },
    {
      "inputs": [
        {
          "internalType": "address",
          "name": "approver",
          "type": "address"
        }
      ],
      "name": "ERC721InvalidApprover",
      "type": "error"
    },
    {
      "inputs": [
        {
          "internalType": "address",
          "name": "operator",
          "type": "address"
        }
      ],
      "name": "ERC721InvalidOperator",
      "type": "error"
    },
    {
      "inputs": [
        {
          "internalType": "address",
          "name": "owner",
          "type": "address"
        }
      ],
      "name": "ERC721InvalidOwner",
      "type": "error"
    },
    {
      "inputs": [
        {
          "internalType": "address",
          "name": "receiver",
          "type": "address"
        }
      ],
      "name": "ERC721InvalidReceiver",
      "type": "error"
    },
    {
      "inputs": [
        {
          "internalType": "address",
          "name": "sender",
          "type": "address"
        }
      ],
      "name": "ERC721InvalidSender",
      "type": "error"
    },
    {
      "inputs": [
        {
          "internalType": "uint256",
          "name": "tokenId",
          "type": "uint256"
        }
      ],
      "name": "ERC721NonexistentToken",
      "type": "error"
    },
    {
      "inputs": [
        {
          "internalType": "address",
          "name": "owner",
          "type": "address"
        }
      ],
      "name": "OwnableInvalidOwner",
      "type": "error"
    },
    {
      "inputs": [
        {
          "internalType": "address",
          "name": "account",
          "type": "address"
        }
      ],
      "name": "OwnableUnauthorizedAccount",
      "type": "error"
    },
    {
      "anonymous": false,
      "inputs": [
        {
          "indexed": true,
          "internalType": "address",
          "name": "owner",
          "type": "address"
        },
        {
          "indexed": true,
          "internalType": "address",
          "name": "approved",
          "type": "address"
        },
        {
          "indexed": true,
          "internalType": "uint256",
          "name": "tokenId",
          "type": "uint256"
        }
      ],
      "name": "Approval",
      "type": "event"
    },
    {
      "anonymous": false,
      "inputs": [
        {
          "indexed": true,
          "internalType": "address",
          "name": "owner",
          "type": "address"
        },
        {
          "indexed": true,
          "internalType": "address",
          "name": "operator",
          "type": "address"
        },
        {
          "indexed": false,
          "internalType": "bool",
          "name": "approved",
          "type": "bool"
        }
      ],
      "name": "ApprovalForAll",
      "type": "event"
    },
    {
      "anonymous": false,
      "inputs": [
        {
          "indexed": false,
          "internalType": "uint256",
          "name": "_fromTokenId",
          "type": "uint256"
        },
        {
          "indexed": false,
          "internalType": "uint256",
          "name": "_toTokenId",
          "type": "uint256"
        }
      ],
      "name": "BatchMetadataUpdate",
      "type": "event"
    },
    {
      "anonymous": false,
      "inputs": [
        {
          "indexed": false,
          "internalType": "uint256",
          "name": "_tokenId",
          "type": "uint256"
        }
      ],
      "name": "MetadataUpdate",
      "type": "event"
    },
    {
      "anonymous": false,
      "inputs": [
        {
          "indexed": true,
          "internalType": "uint256",
          "name": "tokenId",
          "type": "uint256"
        },
        {
          "indexed": false,
          "internalType": "string",
          "name": "name",
          "type": "string"
        },
        {
          "indexed": false,
          "internalType": "string",
          "name": "symbol",
          "type": "string"
        },
        {
          "indexed": false,
          "internalType": "string",
          "name": "baseURI",
          "type": "string"
        },
        {
          "indexed": false,
          "internalType": "uint256",
          "name": "totalSupply",
          "type": "uint256"
        },
        {
          "indexed": false,
          "internalType": "uint256",
          "name": "pricePerMint",
          "type": "uint256"
        },
        {
          "indexed": false,
          "internalType": "address",
          "name": "donationAddress",
          "type": "address"
        },
        {
          "indexed": false,
          "internalType": "uint256",
          "name": "donationPercentage",
          "type": "uint256"
        }
      ],
      "name": "NFTCollectionCreated",
      "type": "event"
    },
    {
      "anonymous": false,
      "inputs": [
        {
          "indexed": true,
          "internalType": "uint256",
          "name": "tokenId",
          "type": "uint256"
        },
        {
          "indexed": true,
          "internalType": "address",
          "name": "minter",
          "type": "address"
        }
      ],
      "name": "NFTMinted",
      "type": "event"
    },
    {
      "anonymous": false,
      "inputs": [
        {
          "indexed": true,
          "internalType": "address",
          "name": "previousOwner",
          "type": "address"
        },
        {
          "indexed": true,
          "internalType": "address",
          "name": "newOwner",
          "type": "address"
        }
      ],
      "name": "OwnershipTransferred",
      "type": "event"
    },
    {
      "anonymous": false,
      "inputs": [
        {
          "indexed": true,
          "internalType": "address",
          "name": "from",
          "type": "address"
        },
        {
          "indexed": true,
          "internalType": "address",
          "name": "to",
          "type": "address"
        },
        {
          "indexed": true,
          "internalType": "uint256",
          "name": "tokenId",
          "type": "uint256"
        }
      ],
      "name": "Transfer",
      "type": "event"
    },
    {
      "inputs": [
        {
          "internalType": "address",
          "name": "to",
          "type": "address"
        },
        {
          "internalType": "uint256",
          "name": "tokenId",
          "type": "uint256"
        }
      ],
      "name": "approve",
      "outputs": [],
      "stateMutability": "nonpayable",
      "type": "function"
    },
    {
      "inputs": [
        {
          "internalType": "address",
          "name": "owner",
          "type": "address"
        }
      ],
      "name": "balanceOf",
      "outputs": [
        {
          "internalType": "uint256",
          "name": "",
          "type": "uint256"
        }
      ],
      "stateMutability": "view",
      "type": "function",
      "constant": true
    },
    {
      "inputs": [
        {
          "internalType": "uint256",
          "name": "tokenId",
          "type": "uint256"
        }
      ],
      "name": "getApproved",
      "outputs": [
        {
          "internalType": "address",
          "name": "",
          "type": "address"
        }
      ],
      "stateMutability": "view",
      "type": "function",
      "constant": true
    },
    {
      "inputs": [
        {
          "internalType": "address",
          "name": "owner",
          "type": "address"
        },
        {
          "internalType": "address",
          "name": "operator",
          "type": "address"
        }
      ],
      "name": "isApprovedForAll",
      "outputs": [
        {
          "internalType": "bool",
          "name": "",
          "type": "bool"
        }
      ],
      "stateMutability": "view",
      "type": "function",
      "constant": true
    },
    {
      "inputs": [
        {
          "internalType": "uint256",
          "name": "",
          "type": "uint256"
        }
      ],
      "name": "nftCollections",
      "outputs": [
        {
          "internalType": "string",
          "name": "name",
          "type": "string"
        },
        {
          "internalType": "string",
          "name": "symbol",
          "type": "string"
        },
        {
          "internalType": "string",
          "name": "baseURI",
          "type": "string"
        },
        {
          "internalType": "uint256",
          "name": "totalSupply",
          "type": "uint256"
        },
        {
          "internalType": "uint256",
          "name": "minted",
          "type": "uint256"
        },
        {
          "internalType": "uint256",
          "name": "pricePerMint",
          "type": "uint256"
        },
        {
          "internalType": "address",
          "name": "donationAddress",
          "type": "address"
        },
        {
          "internalType": "uint256",
          "name": "donationPercentage",
          "type": "uint256"
        }
      ],
      "stateMutability": "view",
      "type": "function",
      "constant": true
    },
    {
      "inputs": [],
      "name": "owner",
      "outputs": [
        {
          "internalType": "address",
          "name": "",
          "type": "address"
        }
      ],
      "stateMutability": "view",
      "type": "function",
      "constant": true
    },
    {
      "inputs": [
        {
          "internalType": "uint256",
          "name": "tokenId",
          "type": "uint256"
        }
      ],
      "name": "ownerOf",
      "outputs": [
        {
          "internalType": "address",
          "name": "",
          "type": "address"
        }
      ],
      "stateMutability": "view",
      "type": "function",
      "constant": true
    },
    {
      "inputs": [],
      "name": "renounceOwnership",
      "outputs": [],
      "stateMutability": "nonpayable",
      "type": "function"
    },
    {
      "inputs": [
        {
          "internalType": "address",
          "name": "from",
          "type": "address"
        },
        {
          "internalType": "address",
          "name": "to",
          "type": "address"
        },
        {
          "internalType": "uint256",
          "name": "tokenId",
          "type": "uint256"
        }
      ],
      "name": "safeTransferFrom",
      "outputs": [],
      "stateMutability": "nonpayable",
      "type": "function"
    },
    {
      "inputs": [
        {
          "internalType": "address",
          "name": "from",
          "type": "address"
        },
        {
          "internalType": "address",
          "name": "to",
          "type": "address"
        },
        {
          "internalType": "uint256",
          "name": "tokenId",
          "type": "uint256"
        },
        {
          "internalType": "bytes",
          "name": "data",
          "type": "bytes"
        }
      ],
      "name": "safeTransferFrom",
      "outputs": [],
      "stateMutability": "nonpayable",
      "type": "function"
    },
    {
      "inputs": [
        {
          "internalType": "address",
          "name": "operator",
          "type": "address"
        },
        {
          "internalType": "bool",
          "name": "approved",
          "type": "bool"
        }
      ],
      "name": "setApprovalForAll",
      "outputs": [],
      "stateMutability": "nonpayable",
      "type": "function"
    },
    {
      "inputs": [
        {
          "internalType": "bytes4",
          "name": "interfaceId",
          "type": "bytes4"
        }
      ],
      "name": "supportsInterface",
      "outputs": [
        {
          "internalType": "bool",
          "name": "",
          "type": "bool"
        }
      ],
      "stateMutability": "view",
      "type": "function",
      "constant": true
    },
    {
      "inputs": [],
      "name": "tokenCounter",
      "outputs": [
        {
          "internalType": "uint256",
          "name": "",
          "type": "uint256"
        }
      ],
      "stateMutability": "view",
      "type": "function",
      "constant": true
    },
    {
      "inputs": [
        {
          "internalType": "uint256",
          "name": "tokenId",
          "type": "uint256"
        }
      ],
      "name": "tokenURI",
      "outputs": [
        {
          "internalType": "string",
          "name": "",
          "type": "string"
        }
      ],
      "stateMutability": "view",
      "type": "function",
      "constant": true
    },
    {
      "inputs": [
        {
          "internalType": "address",
          "name": "from",
          "type": "address"
        },
        {
          "internalType": "address",
          "name": "to",
          "type": "address"
        },
        {
          "internalType": "uint256",
          "name": "tokenId",
          "type": "uint256"
        }
      ],
      "name": "transferFrom",
      "outputs": [],
      "stateMutability": "nonpayable",
      "type": "function"
    },
    {
      "inputs": [
        {
          "internalType": "address",
          "name": "newOwner",
          "type": "address"
        }
      ],
      "name": "transferOwnership",
      "outputs": [],
      "stateMutability": "nonpayable",
      "type": "function"
    },
    {
      "inputs": [
        {
          "internalType": "string",
          "name": "name",
          "type": "string"
        },
        {
          "internalType": "string",
          "name": "symbol",
          "type": "string"
        },
        {
          "internalType": "string",
          "name": "baseURI",
          "type": "string"
        },
        {
          "internalType": "uint256",
          "name": "totalSupply",
          "type": "uint256"
        },
        {
          "internalType": "uint256",
          "name": "pricePerMint",
          "type": "uint256"
        },
        {
          "internalType": "address",
          "name": "donationAddress",
          "type": "address"
        },
        {
          "internalType": "uint256",
          "name": "donationPercentage",
          "type": "uint256"
        }
      ],
      "name": "createNFTCollection",
      "outputs": [
        {
          "internalType": "uint256",
          "name": "",
          "type": "uint256"
        }
      ],
      "stateMutability": "nonpayable",
      "type": "function"
    },
    {
      "inputs": [
        {
          "internalType": "uint256",
          "name": "collectionId",
          "type": "uint256"
        }
      ],
      "name": "mintNFT",
      "outputs": [],
      "stateMutability": "payable",
      "type": "function",
      "payable": true
    },
    {
      "inputs": [
        {
          "internalType": "uint256",
          "name": "collectionId",
          "type": "uint256"
        }
      ],
      "name": "getNFTCollectionDetails",
      "outputs": [
        {
          "internalType": "string",
          "name": "",
          "type": "string"
        },
        {
          "internalType": "string",
          "name": "",
          "type": "string"
        },
        {
          "internalType": "string",
          "name": "",
          "type": "string"
        },
        {
          "internalType": "uint256",
          "name": "",
          "type": "uint256"
        },
        {
          "internalType": "uint256",
          "name": "",
          "type": "uint256"
        },
        {
          "internalType": "uint256",
          "name": "",
          "type": "uint256"
        },
        {
          "internalType": "address",
          "name": "",
          "type": "address"
        },
        {
          "internalType": "uint256",
          "name": "",
          "type": "uint256"
        }
      ],
      "stateMutability": "view",
      "type": "function",
      "constant": true
    },
    {
      "inputs": [],
      "name": "name",
      "outputs": [
        {
          "internalType": "string",
          "name": "",
          "type": "string"
        }
      ],
      "stateMutability": "view",
      "type": "function",
      "constant": true
    },
    {
      "inputs": [],
      "name": "symbol",
      "outputs": [
        {
          "internalType": "string",
          "name": "",
          "type": "string"
        }
      ],
      "stateMutability": "view",
      "type": "function",
      "constant": true
    }
  ],
  "bytecode": "0x608060405234801562000010575f80fd5b503360405180602001604052805f81525060405180602001604052805f815250815f90816200004091906200040e565b5080600190816200005291906200040e565b5050505f73ffffffffffffffffffffffffffffffffffffffff168173ffffffffffffffffffffffffffffffffffffffff1603620000c8575f6040517f1e4fbdf7000000000000000000000000000000000000000000000000000000008152600401620000bf919062000535565b60405180910390fd5b620000d981620000e760201b60201c565b505f60088190555062000550565b5f60075f9054906101000a900473ffffffffffffffffffffffffffffffffffffffff1690508160075f6101000a81548173ffffffffffffffffffffffffffffffffffffffff021916908373ffffffffffffffffffffffffffffffffffffffff1602179055508173ffffffffffffffffffffffffffffffffffffffff168173ffffffffffffffffffffffffffffffffffffffff167f8be0079c531659141344cd1fd0a4f28419497f9722a3daafe3b4186f6b6457e060405160405180910390a35050565b5f81519050919050565b7f4e487b71000000000000000000000000000000000000000000000000000000005f52604160045260245ffd5b7f4e487b71000000000000000000000000000000000000000000000000000000005f52602260045260245ffd5b5f60028204905060018216806200022657607f821691505b6020821081036200023c576200023b620001e1565b5b50919050565b5f819050815f5260205f209050919050565b5f6020601f8301049050919050565b5f82821b905092915050565b5f60088302620002a07fffffffffffffffffffffffffffffffffffffffffffffffffffffffffffffffff8262000263565b620002ac868362000263565b95508019841693508086168417925050509392505050565b5f819050919050565b5f819050919050565b5f620002f6620002f0620002ea84620002c4565b620002cd565b620002c4565b9050919050565b5f819050919050565b6200031183620002d6565b620003296200032082620002fd565b8484546200026f565b825550505050565b5f90565b6200033f62000331565b6200034c81848462000306565b505050565b5b818110156200037357620003675f8262000335565b60018101905062000352565b5050565b601f821115620003c2576200038c8162000242565b620003978462000254565b81016020851015620003a7578190505b620003bf620003b68562000254565b83018262000351565b50505b505050565b5f82821c905092915050565b5f620003e45f1984600802620003c7565b1980831691505092915050565b5f620003fe8383620003d3565b9150826002028217905092915050565b6200041982620001aa565b67ffffffffffffffff811115620004355762000434620001b4565b5b6200044182546200020e565b6200044e82828562000377565b5f60209050601f83116001811462000484575f84156200046f578287015190505b6200047b8582620003f1565b865550620004ea565b601f198416620004948662000242565b5f5b82811015620004bd5784890151825560018201915060208501945060208101905062000496565b86831015620004dd5784890151620004d9601f891682620003d3565b8355505b6001600288020188555050505b505050505050565b5f73ffffffffffffffffffffffffffffffffffffffff82169050919050565b5f6200051d82620004f2565b9050919050565b6200052f8162000511565b82525050565b5f6020820190506200054a5f83018462000524565b92915050565b61344a806200055e5f395ff3fe608060405260043610610129575f3560e01c80638da5cb5b116100aa578063bfca66c91161006e578063bfca66c9146103d8578063c87b56dd1461041b578063d082e38114610457578063e985e9c514610481578063f2fde38b146104bd578063f791558e146104e557610129565b80638da5cb5b14610318578063926427441461034257806395d89b411461035e578063a22cb46514610388578063b88d4fde146103b057610129565b806323b872dd116100f157806323b872dd1461023a57806342842e0e146102625780636352211e1461028a57806370a08231146102c6578063715018a61461030257610129565b8063010c9c941461012d57806301ffc9a71461017057806306fdde03146101ac578063081812fc146101d6578063095ea7b314610212575b5f80fd5b348015610138575f80fd5b50610153600480360381019061014e9190612502565b610521565b604051610167989796959493929190612605565b60405180910390f35b34801561017b575f80fd5b50610196600480360381019061019191906126eb565b6107ba565b6040516101a39190612730565b60405180910390f35b3480156101b7575f80fd5b506101c061081a565b6040516101cd9190612749565b60405180910390f35b3480156101e1575f80fd5b506101fc60048036038101906101f79190612502565b6108c8565b6040516102099190612769565b60405180910390f35b34801561021d575f80fd5b50610238600480360381019061023391906127ac565b6108e3565b005b348015610245575f80fd5b50610260600480360381019061025b91906127ea565b6108f9565b005b34801561026d575f80fd5b50610288600480360381019061028391906127ea565b6109f8565b005b348015610295575f80fd5b506102b060048036038101906102ab9190612502565b610a17565b6040516102bd9190612769565b60405180910390f35b3480156102d1575f80fd5b506102ec60048036038101906102e7919061283a565b610a28565b6040516102f99190612865565b60405180910390f35b34801561030d575f80fd5b50610316610ade565b005b348015610323575f80fd5b5061032c610af1565b6040516103399190612769565b60405180910390f35b61035c60048036038101906103579190612502565b610b19565b005b348015610369575f80fd5b50610372610dc6565b60405161037f9190612749565b60405180910390f35b348015610393575f80fd5b506103ae60048036038101906103a991906128a8565b610e75565b005b3480156103bb575f80fd5b506103d660048036038101906103d19190612a12565b610e8b565b005b3480156103e3575f80fd5b506103fe60048036038101906103f99190612502565b610ea8565b604051610412989796959493929190612605565b60405180910390f35b348015610426575f80fd5b50610441600480360381019061043c9190612502565b61109d565b60405161044e9190612749565b60405180910390f35b348015610462575f80fd5b5061046b6111a8565b6040516104789190612865565b60405180910390f35b34801561048c575f80fd5b506104a760048036038101906104a29190612a92565b6111ae565b6040516104b49190612730565b60405180910390f35b3480156104c8575f80fd5b506104e360048036038101906104de919061283a565b61123c565b005b3480156104f0575f80fd5b5061050b60048036038101906105069190612b6e565b6112c0565b6040516105189190612865565b60405180910390f35b60608060605f805f805f8060095f8b81526020019081526020015f20604051806101000160405290815f8201805461055890612c8c565b80601f016020809104026020016040519081016040528092919081815260200182805461058490612c8c565b80156105cf5780601f106105a6576101008083540402835291602001916105cf565b820191905f5260205f20905b8154815290600101906020018083116105b257829003601f168201915b505050505081526020016001820180546105e890612c8c565b80601f016020809104026020016040519081016040528092919081815260200182805461061490612c8c565b801561065f5780601f106106365761010080835404028352916020019161065f565b820191905f5260205f20905b81548152906001019060200180831161064257829003601f168201915b5050505050815260200160028201805461067890612c8c565b80601f01602080910402602001604051908101604052809291908181526020018280546106a490612c8c565b80156106ef5780601f106106c6576101008083540402835291602001916106ef565b820191905f5260205f20905b8154815290600101906020018083116106d257829003601f168201915b50505050508152602001600382015481526020016004820154815260200160058201548152602001600682015f9054906101000a900473ffffffffffffffffffffffffffffffffffffffff1673ffffffffffffffffffffffffffffffffffffffff1673ffffffffffffffffffffffffffffffffffffffff1681526020016007820154815250509050805f015181602001518260400151836060015184608001518560a001518660c001518760e001519850985098509850985098509850985050919395975091939597565b5f634906490660e01b7bffffffffffffffffffffffffffffffffffffffffffffffffffffffff1916827bffffffffffffffffffffffffffffffffffffffffffffffffffffffff1916148061081357506108128261148f565b5b9050919050565b60605f61082633611570565b905060095f8281526020019081526020015f205f01805461084690612c8c565b80601f016020809104026020016040519081016040528092919081815260200182805461087290612c8c565b80156108bd5780601f10610894576101008083540402835291602001916108bd565b820191905f5260205f20905b8154815290600101906020018083116108a057829003601f168201915b505050505091505090565b5f6108d282611576565b506108dc826115fc565b9050919050565b6108f582826108f0611635565b61163c565b5050565b5f73ffffffffffffffffffffffffffffffffffffffff168273ffffffffffffffffffffffffffffffffffffffff1603610969575f6040517f64a0ae920000000000000000000000000000000000000000000000000000000081526004016109609190612769565b60405180910390fd5b5f61097c8383610977611635565b61164e565b90508373ffffffffffffffffffffffffffffffffffffffff168173ffffffffffffffffffffffffffffffffffffffff16146109f2578382826040517f64283d7b0000000000000000000000000000000000000000000000000000000081526004016109e993929190612cbc565b60405180910390fd5b50505050565b610a1283838360405180602001604052805f815250610e8b565b505050565b5f610a2182611576565b9050919050565b5f8073ffffffffffffffffffffffffffffffffffffffff168273ffffffffffffffffffffffffffffffffffffffff1603610a99575f6040517f89c62b64000000000000000000000000000000000000000000000000000000008152600401610a909190612769565b60405180910390fd5b60035f8373ffffffffffffffffffffffffffffffffffffffff1673ffffffffffffffffffffffffffffffffffffffff1681526020019081526020015f20549050919050565b610ae6611859565b610aef5f6118e0565b565b5f60075f9054906101000a900473ffffffffffffffffffffffffffffffffffffffff16905090565b5f60095f8381526020019081526020015f2090508060030154816004015410610b77576040517f08c379a0000000000000000000000000000000000000000000000000000000008152600401610b6e90612d3b565b60405180910390fd5b8060050154341015610bbe576040517f08c379a0000000000000000000000000000000000000000000000000000000008152600401610bb590612da3565b60405180910390fd5b5f6064826007015434610bd19190612dee565b610bdb9190612e5c565b90505f8134610bea9190612e8c565b9050826006015f9054906101000a900473ffffffffffffffffffffffffffffffffffffffff1673ffffffffffffffffffffffffffffffffffffffff166108fc8390811502906040515f60405180830381858888f19350505050158015610c52573d5f803e3d5ffd5b50610c5b610af1565b73ffffffffffffffffffffffffffffffffffffffff166108fc8290811502906040515f60405180830381858888f19350505050158015610c9d573d5f803e3d5ffd5b505f8360040154670de0b6b3a764000086610cb89190612dee565b610cc29190612ebf565b9050610cce33826119a3565b610d6281856002018054610ce190612c8c565b80601f0160208091040260200160405190810160405280929190818152602001828054610d0d90612c8c565b8015610d585780601f10610d2f57610100808354040283529160200191610d58565b820191905f5260205f20905b815481529060010190602001808311610d3b57829003601f168201915b50505050506119c0565b836004015f815480929190610d7690612ef2565b91905055503373ffffffffffffffffffffffffffffffffffffffff16817f0176f203df400d7bd5f1b1c9ef36c16709bf3b5d9fd35f000a6bae32393f66c360405160405180910390a35050505050565b60605f610dd233611570565b905060095f8281526020019081526020015f206001018054610df390612c8c565b80601f0160208091040260200160405190810160405280929190818152602001828054610e1f90612c8c565b8015610e6a5780601f10610e4157610100808354040283529160200191610e6a565b820191905f5260205f20905b815481529060010190602001808311610e4d57829003601f168201915b505050505091505090565b610e87610e80611635565b8383611a1a565b5050565b610e968484846108f9565b610ea284848484611b83565b50505050565b6009602052805f5260405f205f91509050805f018054610ec790612c8c565b80601f0160208091040260200160405190810160405280929190818152602001828054610ef390612c8c565b8015610f3e5780601f10610f1557610100808354040283529160200191610f3e565b820191905f5260205f20905b815481529060010190602001808311610f2157829003601f168201915b505050505090806001018054610f5390612c8c565b80601f0160208091040260200160405190810160405280929190818152602001828054610f7f90612c8c565b8015610fca5780601f10610fa157610100808354040283529160200191610fca565b820191905f5260205f20905b815481529060010190602001808311610fad57829003601f168201915b505050505090806002018054610fdf90612c8c565b80601f016020809104026020016040519081016040528092919081815260200182805461100b90612c8c565b80156110565780601f1061102d57610100808354040283529160200191611056565b820191905f5260205f20905b81548152906001019060200180831161103957829003601f168201915b505050505090806003015490806004015490806005015490806006015f9054906101000a900473ffffffffffffffffffffffffffffffffffffffff16908060070154905088565b60606110a882611576565b505f60065f8481526020019081526020015f2080546110c690612c8c565b80601f01602080910402602001604051908101604052809291908181526020018280546110f290612c8c565b801561113d5780601f106111145761010080835404028352916020019161113d565b820191905f5260205f20905b81548152906001019060200180831161112057829003601f168201915b505050505090505f61114d611d35565b90505f8151036111615781925050506111a3565b5f8251111561119557808260405160200161117d929190612f73565b604051602081830303815290604052925050506111a3565b61119e84611d4b565b925050505b919050565b60085481565b5f60055f8473ffffffffffffffffffffffffffffffffffffffff1673ffffffffffffffffffffffffffffffffffffffff1681526020019081526020015f205f8373ffffffffffffffffffffffffffffffffffffffff1673ffffffffffffffffffffffffffffffffffffffff1681526020019081526020015f205f9054906101000a900460ff16905092915050565b611244611859565b5f73ffffffffffffffffffffffffffffffffffffffff168173ffffffffffffffffffffffffffffffffffffffff16036112b4575f6040517f1e4fbdf70000000000000000000000000000000000000000000000000000000081526004016112ab9190612769565b60405180910390fd5b6112bd816118e0565b50565b5f6112c9611859565b606482111561130d576040517f08c379a000000000000000000000000000000000000000000000000000000000815260040161130490613006565b60405180910390fd5b5f60085490506040518061010001604052808a81526020018981526020018881526020018781526020015f81526020018681526020018573ffffffffffffffffffffffffffffffffffffffff1681526020018481525060095f8381526020019081526020015f205f820151815f01908161138791906131c1565b50602082015181600101908161139d91906131c1565b5060408201518160020190816113b391906131c1565b50606082015181600301556080820151816004015560a0820151816005015560c0820151816006015f6101000a81548173ffffffffffffffffffffffffffffffffffffffff021916908373ffffffffffffffffffffffffffffffffffffffff16021790555060e08201518160070155905050807f412d59099fe31d2e74d5c8f676f916254bd2873bb492038ef413932b1ff299498a8a8a8a8a8a8a6040516114619796959493929190613290565b60405180910390a260085f81548092919061147b90612ef2565b919050555080915050979650505050505050565b5f7f80ac58cd000000000000000000000000000000000000000000000000000000007bffffffffffffffffffffffffffffffffffffffffffffffffffffffff1916827bffffffffffffffffffffffffffffffffffffffffffffffffffffffff1916148061155957507f5b5e139f000000000000000000000000000000000000000000000000000000007bffffffffffffffffffffffffffffffffffffffffffffffffffffffff1916827bffffffffffffffffffffffffffffffffffffffffffffffffffffffff1916145b80611569575061156882611db1565b5b9050919050565b5f919050565b5f8061158183611e1a565b90505f73ffffffffffffffffffffffffffffffffffffffff168173ffffffffffffffffffffffffffffffffffffffff16036115f357826040517f7e2732890000000000000000000000000000000000000000000000000000000081526004016115ea9190612865565b60405180910390fd5b80915050919050565b5f60045f8381526020019081526020015f205f9054906101000a900473ffffffffffffffffffffffffffffffffffffffff169050919050565b5f33905090565b6116498383836001611e53565b505050565b5f8061165984611e1a565b90505f73ffffffffffffffffffffffffffffffffffffffff168373ffffffffffffffffffffffffffffffffffffffff161461169a57611699818486612012565b5b5f73ffffffffffffffffffffffffffffffffffffffff168173ffffffffffffffffffffffffffffffffffffffff1614611725576116d95f855f80611e53565b600160035f8373ffffffffffffffffffffffffffffffffffffffff1673ffffffffffffffffffffffffffffffffffffffff1681526020019081526020015f205f82825403925050819055505b5f73ffffffffffffffffffffffffffffffffffffffff168573ffffffffffffffffffffffffffffffffffffffff16146117a457600160035f8773ffffffffffffffffffffffffffffffffffffffff1673ffffffffffffffffffffffffffffffffffffffff1681526020019081526020015f205f82825401925050819055505b8460025f8681526020019081526020015f205f6101000a81548173ffffffffffffffffffffffffffffffffffffffff021916908373ffffffffffffffffffffffffffffffffffffffff160217905550838573ffffffffffffffffffffffffffffffffffffffff168273ffffffffffffffffffffffffffffffffffffffff167fddf252ad1be2c89b69c2b068fc378daa952ba7f163c4a11628f55a4df523b3ef60405160405180910390a4809150509392505050565b611861611635565b73ffffffffffffffffffffffffffffffffffffffff1661187f610af1565b73ffffffffffffffffffffffffffffffffffffffff16146118de576118a2611635565b6040517f118cdaa70000000000000000000000000000000000000000000000000000000081526004016118d59190612769565b60405180910390fd5b565b5f60075f9054906101000a900473ffffffffffffffffffffffffffffffffffffffff1690508160075f6101000a81548173ffffffffffffffffffffffffffffffffffffffff021916908373ffffffffffffffffffffffffffffffffffffffff1602179055508173ffffffffffffffffffffffffffffffffffffffff168173ffffffffffffffffffffffffffffffffffffffff167f8be0079c531659141344cd1fd0a4f28419497f9722a3daafe3b4186f6b6457e060405160405180910390a35050565b6119bc828260405180602001604052805f8152506120d5565b5050565b8060065f8481526020019081526020015f2090816119de91906131c1565b507ff8e1a15aba9398e019f0b49df1a4fde98ee17ae345cb5f6b5e2c27f5033e8ce782604051611a0e9190612865565b60405180910390a15050565b5f73ffffffffffffffffffffffffffffffffffffffff168273ffffffffffffffffffffffffffffffffffffffff1603611a8a57816040517f5b08ba18000000000000000000000000000000000000000000000000000000008152600401611a819190612769565b60405180910390fd5b8060055f8573ffffffffffffffffffffffffffffffffffffffff1673ffffffffffffffffffffffffffffffffffffffff1681526020019081526020015f205f8473ffffffffffffffffffffffffffffffffffffffff1673ffffffffffffffffffffffffffffffffffffffff1681526020019081526020015f205f6101000a81548160ff0219169083151502179055508173ffffffffffffffffffffffffffffffffffffffff168373ffffffffffffffffffffffffffffffffffffffff167f17307eab39ab6107e8899845ad3d59bd9653f200f220920489ca2b5937696c3183604051611b769190612730565b60405180910390a3505050565b5f8373ffffffffffffffffffffffffffffffffffffffff163b1115611d2f578273ffffffffffffffffffffffffffffffffffffffff1663150b7a02611bc6611635565b8685856040518563ffffffff1660e01b8152600401611be89493929190613364565b6020604051808303815f875af1925050508015611c2357506040513d601f19601f82011682018060405250810190611c2091906133c2565b60015b611ca4573d805f8114611c51576040519150601f19603f3d011682016040523d82523d5f602084013e611c56565b606091505b505f815103611c9c57836040517f64a0ae92000000000000000000000000000000000000000000000000000000008152600401611c939190612769565b60405180910390fd5b805181602001fd5b63150b7a0260e01b7bffffffffffffffffffffffffffffffffffffffffffffffffffffffff1916817bffffffffffffffffffffffffffffffffffffffffffffffffffffffff191614611d2d57836040517f64a0ae92000000000000000000000000000000000000000000000000000000008152600401611d249190612769565b60405180910390fd5b505b50505050565b606060405180602001604052805f815250905090565b6060611d5682611576565b505f611d60611d35565b90505f815111611d7e5760405180602001604052805f815250611da9565b80611d88846120f0565b604051602001611d99929190612f73565b6040516020818303038152906040525b915050919050565b5f7f01ffc9a7000000000000000000000000000000000000000000000000000000007bffffffffffffffffffffffffffffffffffffffffffffffffffffffff1916827bffffffffffffffffffffffffffffffffffffffffffffffffffffffff1916149050919050565b5f60025f8381526020019081526020015f205f9054906101000a900473ffffffffffffffffffffffffffffffffffffffff169050919050565b8080611e8b57505f73ffffffffffffffffffffffffffffffffffffffff168273ffffffffffffffffffffffffffffffffffffffff1614155b15611fbd575f611e9a84611576565b90505f73ffffffffffffffffffffffffffffffffffffffff168373ffffffffffffffffffffffffffffffffffffffff1614158015611f0457508273ffffffffffffffffffffffffffffffffffffffff168173ffffffffffffffffffffffffffffffffffffffff1614155b8015611f175750611f1581846111ae565b155b15611f5957826040517fa9fbf51f000000000000000000000000000000000000000000000000000000008152600401611f509190612769565b60405180910390fd5b8115611fbb57838573ffffffffffffffffffffffffffffffffffffffff168273ffffffffffffffffffffffffffffffffffffffff167f8c5be1e5ebec7d5bd14f71427d1e84f3dd0314c0f7b2291e5b200ac8c7c3b92560405160405180910390a45b505b8360045f8581526020019081526020015f205f6101000a81548173ffffffffffffffffffffffffffffffffffffffff021916908373ffffffffffffffffffffffffffffffffffffffff16021790555050505050565b61201d8383836121ba565b6120d0575f73ffffffffffffffffffffffffffffffffffffffff168373ffffffffffffffffffffffffffffffffffffffff160361209157806040517f7e2732890000000000000000000000000000000000000000000000000000000081526004016120889190612865565b60405180910390fd5b81816040517f177e802f0000000000000000000000000000000000000000000000000000000081526004016120c79291906133ed565b60405180910390fd5b505050565b6120df838361227a565b6120eb5f848484611b83565b505050565b60605f60016120fe8461236d565b0190505f8167ffffffffffffffff81111561211c5761211b6128ee565b5b6040519080825280601f01601f19166020018201604052801561214e5781602001600182028036833780820191505090505b5090505f82602001820190505b6001156121af578080600190039150507f3031323334353637383961626364656600000000000000000000000000000000600a86061a8153600a85816121a4576121a3612e2f565b5b0494505f850361215b575b819350505050919050565b5f8073ffffffffffffffffffffffffffffffffffffffff168373ffffffffffffffffffffffffffffffffffffffff161415801561227157508273ffffffffffffffffffffffffffffffffffffffff168473ffffffffffffffffffffffffffffffffffffffff161480612232575061223184846111ae565b5b8061227057508273ffffffffffffffffffffffffffffffffffffffff16612258836115fc565b73ffffffffffffffffffffffffffffffffffffffff16145b5b90509392505050565b5f73ffffffffffffffffffffffffffffffffffffffff168273ffffffffffffffffffffffffffffffffffffffff16036122ea575f6040517f64a0ae920000000000000000000000000000000000000000000000000000000081526004016122e19190612769565b60405180910390fd5b5f6122f683835f61164e565b90505f73ffffffffffffffffffffffffffffffffffffffff168173ffffffffffffffffffffffffffffffffffffffff1614612368575f6040517f73c6ac6e00000000000000000000000000000000000000000000000000000000815260040161235f9190612769565b60405180910390fd5b505050565b5f805f90507a184f03e93ff9f4daa797ed6e38ed64bf6a1f01000000000000000083106123c9577a184f03e93ff9f4daa797ed6e38ed64bf6a1f01000000000000000083816123bf576123be612e2f565b5b0492506040810190505b6d04ee2d6d415b85acef81000000008310612406576d04ee2d6d415b85acef810000000083816123fc576123fb612e2f565b5b0492506020810190505b662386f26fc10000831061243557662386f26fc10000838161242b5761242a612e2f565b5b0492506010810190505b6305f5e100831061245e576305f5e100838161245457612453612e2f565b5b0492506008810190505b612710831061248357612710838161247957612478612e2f565b5b0492506004810190505b606483106124a6576064838161249c5761249b612e2f565b5b0492506002810190505b600a83106124b5576001810190505b80915050919050565b5f604051905090565b5f80fd5b5f80fd5b5f819050919050565b6124e1816124cf565b81146124eb575f80fd5b50565b5f813590506124fc816124d8565b92915050565b5f60208284031215612517576125166124c7565b5b5f612524848285016124ee565b91505092915050565b5f81519050919050565b5f82825260208201905092915050565b5f5b83811015612564578082015181840152602081019050612549565b5f8484015250505050565b5f601f19601f8301169050919050565b5f6125898261252d565b6125938185612537565b93506125a3818560208601612547565b6125ac8161256f565b840191505092915050565b6125c0816124cf565b82525050565b5f73ffffffffffffffffffffffffffffffffffffffff82169050919050565b5f6125ef826125c6565b9050919050565b6125ff816125e5565b82525050565b5f610100820190508181035f83015261261e818b61257f565b90508181036020830152612632818a61257f565b90508181036040830152612646818961257f565b905061265560608301886125b7565b61266260808301876125b7565b61266f60a08301866125b7565b61267c60c08301856125f6565b61268960e08301846125b7565b9998505050505050505050565b5f7fffffffff0000000000000000000000000000000000000000000000000000000082169050919050565b6126ca81612696565b81146126d4575f80fd5b50565b5f813590506126e5816126c1565b92915050565b5f60208284031215612700576126ff6124c7565b5b5f61270d848285016126d7565b91505092915050565b5f8115159050919050565b61272a81612716565b82525050565b5f6020820190506127435f830184612721565b92915050565b5f6020820190508181035f830152612761818461257f565b905092915050565b5f60208201905061277c5f8301846125f6565b92915050565b61278b816125e5565b8114612795575f80fd5b50565b5f813590506127a681612782565b92915050565b5f80604083850312156127c2576127c16124c7565b5b5f6127cf85828601612798565b92505060206127e0858286016124ee565b9150509250929050565b5f805f60608486031215612801576128006124c7565b5b5f61280e86828701612798565b935050602061281f86828701612798565b9250506040612830868287016124ee565b9150509250925092565b5f6020828403121561284f5761284e6124c7565b5b5f61285c84828501612798565b91505092915050565b5f6020820190506128785f8301846125b7565b92915050565b61288781612716565b8114612891575f80fd5b50565b5f813590506128a28161287e565b92915050565b5f80604083850312156128be576128bd6124c7565b5b5f6128cb85828601612798565b92505060206128dc85828601612894565b9150509250929050565b5f80fd5b5f80fd5b7f4e487b71000000000000000000000000000000000000000000000000000000005f52604160045260245ffd5b6129248261256f565b810181811067ffffffffffffffff82111715612943576129426128ee565b5b80604052505050565b5f6129556124be565b9050612961828261291b565b919050565b5f67ffffffffffffffff8211156129805761297f6128ee565b5b6129898261256f565b9050602081019050919050565b828183375f83830152505050565b5f6129b66129b184612966565b61294c565b9050828152602081018484840111156129d2576129d16128ea565b5b6129dd848285612996565b509392505050565b5f82601f8301126129f9576129f86128e6565b5b8135612a098482602086016129a4565b91505092915050565b5f805f8060808587031215612a2a57612a296124c7565b5b5f612a3787828801612798565b9450506020612a4887828801612798565b9350506040612a59878288016124ee565b925050606085013567ffffffffffffffff811115612a7a57612a796124cb565b5b612a86878288016129e5565b91505092959194509250565b5f8060408385031215612aa857612aa76124c7565b5b5f612ab585828601612798565b9250506020612ac685828601612798565b9150509250929050565b5f67ffffffffffffffff821115612aea57612ae96128ee565b5b612af38261256f565b9050602081019050919050565b5f612b12612b0d84612ad0565b61294c565b905082815260208101848484011115612b2e57612b2d6128ea565b5b612b39848285612996565b509392505050565b5f82601f830112612b5557612b546128e6565b5b8135612b65848260208601612b00565b91505092915050565b5f805f805f805f60e0888a031215612b8957612b886124c7565b5b5f88013567ffffffffffffffff811115612ba657612ba56124cb565b5b612bb28a828b01612b41565b975050602088013567ffffffffffffffff811115612bd357612bd26124cb565b5b612bdf8a828b01612b41565b965050604088013567ffffffffffffffff811115612c0057612bff6124cb565b5b612c0c8a828b01612b41565b9550506060612c1d8a828b016124ee565b9450506080612c2e8a828b016124ee565b93505060a0612c3f8a828b01612798565b92505060c0612c508a828b016124ee565b91505092959891949750929550565b7f4e487b71000000000000000000000000000000000000000000000000000000005f52602260045260245ffd5b5f6002820490506001821680612ca357607f821691505b602082108103612cb657612cb5612c5f565b5b50919050565b5f606082019050612ccf5f8301866125f6565b612cdc60208301856125b7565b612ce960408301846125f6565b949350505050565b7f416c6c204e465473206d696e74656400000000000000000000000000000000005f82015250565b5f612d25600f83612537565b9150612d3082612cf1565b602082019050919050565b5f6020820190508181035f830152612d5281612d19565b9050919050565b7f496e73756666696369656e74207061796d656e740000000000000000000000005f82015250565b5f612d8d601483612537565b9150612d9882612d59565b602082019050919050565b5f6020820190508181035f830152612dba81612d81565b9050919050565b7f4e487b71000000000000000000000000000000000000000000000000000000005f52601160045260245ffd5b5f612df8826124cf565b9150612e03836124cf565b9250828202612e11816124cf565b91508282048414831517612e2857612e27612dc1565b5b5092915050565b7f4e487b71000000000000000000000000000000000000000000000000000000005f52601260045260245ffd5b5f612e66826124cf565b9150612e71836124cf565b925082612e8157612e80612e2f565b5b828204905092915050565b5f612e96826124cf565b9150612ea1836124cf565b9250828203905081811115612eb957612eb8612dc1565b5b92915050565b5f612ec9826124cf565b9150612ed4836124cf565b9250828201905080821115612eec57612eeb612dc1565b5b92915050565b5f612efc826124cf565b91507fffffffffffffffffffffffffffffffffffffffffffffffffffffffffffffffff8203612f2e57612f2d612dc1565b5b600182019050919050565b5f81905092915050565b5f612f4d8261252d565b612f578185612f39565b9350612f67818560208601612547565b80840191505092915050565b5f612f7e8285612f43565b9150612f8a8284612f43565b91508190509392505050565b7f446f6e6174696f6e2070657263656e746167652063616e6e6f742065786365655f8201527f6420313030000000000000000000000000000000000000000000000000000000602082015250565b5f612ff0602583612537565b9150612ffb82612f96565b604082019050919050565b5f6020820190508181035f83015261301d81612fe4565b9050919050565b5f819050815f5260205f209050919050565b5f6020601f8301049050919050565b5f82821b905092915050565b5f600883026130807fffffffffffffffffffffffffffffffffffffffffffffffffffffffffffffffff82613045565b61308a8683613045565b95508019841693508086168417925050509392505050565b5f819050919050565b5f6130c56130c06130bb846124cf565b6130a2565b6124cf565b9050919050565b5f819050919050565b6130de836130ab565b6130f26130ea826130cc565b848454613051565b825550505050565b5f90565b6131066130fa565b6131118184846130d5565b505050565b5b81811015613134576131295f826130fe565b600181019050613117565b5050565b601f8211156131795761314a81613024565b61315384613036565b81016020851015613162578190505b61317661316e85613036565b830182613116565b50505b505050565b5f82821c905092915050565b5f6131995f198460080261317e565b1980831691505092915050565b5f6131b1838361318a565b9150826002028217905092915050565b6131ca8261252d565b67ffffffffffffffff8111156131e3576131e26128ee565b5b6131ed8254612c8c565b6131f8828285613138565b5f60209050601f831160018114613229575f8415613217578287015190505b61322185826131a6565b865550613288565b601f19841661323786613024565b5f5b8281101561325e57848901518255600182019150602085019450602081019050613239565b8683101561327b5784890151613277601f89168261318a565b8355505b6001600288020188555050505b505050505050565b5f60e0820190508181035f8301526132a8818a61257f565b905081810360208301526132bc818961257f565b905081810360408301526132d0818861257f565b90506132df60608301876125b7565b6132ec60808301866125b7565b6132f960a08301856125f6565b61330660c08301846125b7565b98975050505050505050565b5f81519050919050565b5f82825260208201905092915050565b5f61333682613312565b613340818561331c565b9350613350818560208601612547565b6133598161256f565b840191505092915050565b5f6080820190506133775f8301876125f6565b61338460208301866125f6565b61339160408301856125b7565b81810360608301526133a3818461332c565b905095945050505050565b5f815190506133bc816126c1565b92915050565b5f602082840312156133d7576133d66124c7565b5b5f6133e4848285016133ae565b91505092915050565b5f6040820190506134005f8301856125f6565b61340d60208301846125b7565b939250505056fea26469706673582212202b149ccc8f97a8005748281be08644d780d3124414209120b922f9d898b94ad964736f6c63430008140033",
  "immutableReferences": {},
  "source": "// SPDX-License-Identifier: MIT\r\npragma solidity ^0.8.0;\r\n\r\nimport \"@openzeppelin/contracts/token/ERC721/extensions/ERC721URIStorage.sol\";\r\nimport \"@openzeppelin/contracts/access/Ownable.sol\";\r\n\r\ncontract MyNFT is ERC721URIStorage, Ownable {\r\n    uint256 public tokenCounter;\r\n\r\n    struct NFTCollection {\r\n        string name;\r\n        string symbol;\r\n        string baseURI;\r\n        uint256 totalSupply;\r\n        uint256 minted;\r\n        uint256 pricePerMint;\r\n        address donationAddress;\r\n        uint256 donationPercentage; // e.g., 5 for 5%\r\n    }\r\n\r\n    mapping(uint256 => NFTCollection) public nftCollections;\r\n\r\n    event NFTCollectionCreated(uint256 indexed tokenId, string name, string symbol, string baseURI, uint256 totalSupply, uint256 pricePerMint, address donationAddress, uint256 donationPercentage);\r\n    event NFTMinted(uint256 indexed tokenId, address indexed minter);\r\n\r\n    constructor() ERC721(\"\", \"\") Ownable(msg.sender) {\r\n        tokenCounter = 0;\r\n    }\r\n\r\n    function createNFTCollection(string memory name, string memory symbol, string memory baseURI, uint256 totalSupply, uint256 pricePerMint, address donationAddress, uint256 donationPercentage) public onlyOwner returns (uint256) {\r\n        require(donationPercentage <= 100, \"Donation percentage cannot exceed 100\");\r\n        uint256 newTokenId = tokenCounter;\r\n        nftCollections[newTokenId] = NFTCollection(name, symbol, baseURI, totalSupply, 0, pricePerMint, donationAddress, donationPercentage);\r\n        emit NFTCollectionCreated(newTokenId, name, symbol, baseURI, totalSupply, pricePerMint, donationAddress, donationPercentage);\r\n        tokenCounter++;\r\n        return newTokenId;\r\n    }\r\n\r\n    function mintNFT(uint256 collectionId) public payable {\r\n        NFTCollection storage nftCollection = nftCollections[collectionId];\r\n        require(nftCollection.minted < nftCollection.totalSupply, \"All NFTs minted\");\r\n        require(msg.value >= nftCollection.pricePerMint, \"Insufficient payment\");\r\n\r\n        uint256 donationAmount = (msg.value * nftCollection.donationPercentage) / 100;\r\n        uint256 remainingAmount = msg.value - donationAmount;\r\n\r\n        payable(nftCollection.donationAddress).transfer(donationAmount);\r\n        payable(owner()).transfer(remainingAmount);\r\n\r\n        uint256 newTokenId = collectionId * 1e18 + nftCollection.minted;\r\n        _safeMint(msg.sender, newTokenId);\r\n        _setTokenURI(newTokenId, nftCollection.baseURI);\r\n        nftCollection.minted++;\r\n        emit NFTMinted(newTokenId, msg.sender);\r\n    }\r\n\r\n    function getNFTCollectionDetails(uint256 collectionId) public view returns (string memory, string memory, string memory, uint256, uint256, uint256, address, uint256) {\r\n        NFTCollection memory nftCollection = nftCollections[collectionId];\r\n        return (nftCollection.name, nftCollection.symbol, nftCollection.baseURI, nftCollection.totalSupply, nftCollection.minted, nftCollection.pricePerMint, nftCollection.donationAddress, nftCollection.donationPercentage);\r\n    }\r\n\r\n    function name() public view override returns (string memory) {\r\n        uint256 collectionId = _getCollectionId(msg.sender);\r\n        return nftCollections[collectionId].name;\r\n    }\r\n\r\n    function symbol() public view override returns (string memory) {\r\n        uint256 collectionId = _getCollectionId(msg.sender);\r\n        return nftCollections[collectionId].symbol;\r\n    }\r\n\r\n    function _getCollectionId(address owner) internal view returns (uint256) {\r\n        // Implement your logic to get the collection ID based on the owner or any other logic\r\n        // For simplicity, we assume one owner has one collection\r\n        // This part needs to be customized as per your use case\r\n        return 0;\r\n    }\r\n}\r\n",
  "sourcePath": "C:\\GitHub\\en3-be\\contracts\\MyNFT.sol",
  "compiler": {
    "name": "solc",
    "version": "0.8.20+commit.a1b79de6.Emscripten.clang"
  },
  "schemaVersion": "3.4.16",
  "updatedAt": "2024-06-01T14:03:46.188Z",
  "networkType": "ethereum",
  "devdoc": {
    "errors": {
      "ERC721IncorrectOwner(address,uint256,address)": [
        {
          "details": "Indicates an error related to the ownership over a particular token. Used in transfers.",
          "params": {
            "owner": "Address of the current owner of a token.",
            "sender": "Address whose tokens are being transferred.",
            "tokenId": "Identifier number of a token."
          }
        }
      ],
      "ERC721InsufficientApproval(address,uint256)": [
        {
          "details": "Indicates a failure with the `operator`s approval. Used in transfers.",
          "params": {
            "operator": "Address that may be allowed to operate on tokens without being their owner.",
            "tokenId": "Identifier number of a token."
          }
        }
      ],
      "ERC721InvalidApprover(address)": [
        {
          "details": "Indicates a failure with the `approver` of a token to be approved. Used in approvals.",
          "params": {
            "approver": "Address initiating an approval operation."
          }
        }
      ],
      "ERC721InvalidOperator(address)": [
        {
          "details": "Indicates a failure with the `operator` to be approved. Used in approvals.",
          "params": {
            "operator": "Address that may be allowed to operate on tokens without being their owner."
          }
        }
      ],
      "ERC721InvalidOwner(address)": [
        {
          "details": "Indicates that an address can't be an owner. For example, `address(0)` is a forbidden owner in EIP-20. Used in balance queries.",
          "params": {
            "owner": "Address of the current owner of a token."
          }
        }
      ],
      "ERC721InvalidReceiver(address)": [
        {
          "details": "Indicates a failure with the token `receiver`. Used in transfers.",
          "params": {
            "receiver": "Address to which tokens are being transferred."
          }
        }
      ],
      "ERC721InvalidSender(address)": [
        {
          "details": "Indicates a failure with the token `sender`. Used in transfers.",
          "params": {
            "sender": "Address whose tokens are being transferred."
          }
        }
      ],
      "ERC721NonexistentToken(uint256)": [
        {
          "details": "Indicates a `tokenId` whose `owner` is the zero address.",
          "params": {
            "tokenId": "Identifier number of a token."
          }
        }
      ],
      "OwnableInvalidOwner(address)": [
        {
          "details": "The owner is not a valid owner account. (eg. `address(0)`)"
        }
      ],
      "OwnableUnauthorizedAccount(address)": [
        {
          "details": "The caller account is not authorized to perform an operation."
        }
      ]
    },
    "events": {
      "Approval(address,address,uint256)": {
        "details": "Emitted when `owner` enables `approved` to manage the `tokenId` token."
      },
      "ApprovalForAll(address,address,bool)": {
        "details": "Emitted when `owner` enables or disables (`approved`) `operator` to manage all of its assets."
      },
      "BatchMetadataUpdate(uint256,uint256)": {
        "details": "This event emits when the metadata of a range of tokens is changed. So that the third-party platforms such as NFT market could timely update the images and related attributes of the NFTs."
      },
      "MetadataUpdate(uint256)": {
        "details": "This event emits when the metadata of a token is changed. So that the third-party platforms such as NFT market could timely update the images and related attributes of the NFT."
      },
      "Transfer(address,address,uint256)": {
        "details": "Emitted when `tokenId` token is transferred from `from` to `to`."
      }
    },
    "kind": "dev",
    "methods": {
      "approve(address,uint256)": {
        "details": "See {IERC721-approve}."
      },
      "balanceOf(address)": {
        "details": "See {IERC721-balanceOf}."
      },
      "getApproved(uint256)": {
        "details": "See {IERC721-getApproved}."
      },
      "isApprovedForAll(address,address)": {
        "details": "See {IERC721-isApprovedForAll}."
      },
      "name()": {
        "details": "See {IERC721Metadata-name}."
      },
      "owner()": {
        "details": "Returns the address of the current owner."
      },
      "ownerOf(uint256)": {
        "details": "See {IERC721-ownerOf}."
      },
      "renounceOwnership()": {
        "details": "Leaves the contract without owner. It will not be possible to call `onlyOwner` functions. Can only be called by the current owner. NOTE: Renouncing ownership will leave the contract without an owner, thereby disabling any functionality that is only available to the owner."
      },
      "safeTransferFrom(address,address,uint256)": {
        "details": "See {IERC721-safeTransferFrom}."
      },
      "safeTransferFrom(address,address,uint256,bytes)": {
        "details": "See {IERC721-safeTransferFrom}."
      },
      "setApprovalForAll(address,bool)": {
        "details": "See {IERC721-setApprovalForAll}."
      },
      "supportsInterface(bytes4)": {
        "details": "See {IERC165-supportsInterface}"
      },
      "symbol()": {
        "details": "See {IERC721Metadata-symbol}."
      },
      "tokenURI(uint256)": {
        "details": "See {IERC721Metadata-tokenURI}."
      },
      "transferFrom(address,address,uint256)": {
        "details": "See {IERC721-transferFrom}."
      },
      "transferOwnership(address)": {
        "details": "Transfers ownership of the contract to a new account (`newOwner`). Can only be called by the current owner."
      }
    },
    "version": 1
  },
  "userdoc": {
    "kind": "user",
    "methods": {},
    "version": 1
  }
}